{
    "contractName": "GIVEMarketplace",
    "abi": [
        {
            "inputs": [],
            "stateMutability": "nonpayable",
            "type": "constructor"
        },
        {
            "anonymous": false,
            "inputs": [
                {
                    "indexed": true,
                    "internalType": "address",
                    "name": "creator",
                    "type": "address"
                },
                {
                    "indexed": true,
                    "internalType": "address",
                    "name": "nftContract",
                    "type": "address"
                },
                {
                    "indexed": true,
                    "internalType": "uint256",
                    "name": "tokenId",
                    "type": "uint256"
                },
                {
                    "indexed": false,
                    "internalType": "address",
                    "name": "owner",
                    "type": "address"
                }
            ],
            "name": "AssetCreated",
            "type": "event"
        },
        {
            "anonymous": false,
            "inputs": [
                {
                    "indexed": true,
                    "internalType": "address",
                    "name": "owner",
                    "type": "address"
                },
                {
                    "indexed": false,
                    "internalType": "bytes32",
                    "name": "id",
                    "type": "bytes32"
                },
                {
                    "indexed": true,
                    "internalType": "address",
                    "name": "nftContract",
                    "type": "address"
                },
                {
                    "indexed": true,
                    "internalType": "uint256",
                    "name": "tokenId",
                    "type": "uint256"
                },
                {
                    "indexed": false,
                    "internalType": "uint256",
                    "name": "numSales",
                    "type": "uint256"
                },
                {
                    "indexed": false,
                    "internalType": "uint256",
                    "name": "royalties",
                    "type": "uint256"
                },
                {
                    "indexed": false,
                    "internalType": "address",
                    "name": "creator",
                    "type": "address"
                }
            ],
            "name": "AssetImported",
            "type": "event"
        },
        {
            "anonymous": false,
            "inputs": [
                {
                    "indexed": true,
                    "internalType": "address",
                    "name": "newOwner",
                    "type": "address"
                },
                {
                    "indexed": false,
                    "internalType": "bytes32",
                    "name": "assetId",
                    "type": "bytes32"
                },
                {
                    "indexed": true,
                    "internalType": "address",
                    "name": "owner",
                    "type": "address"
                }
            ],
            "name": "AssetOwnershipChanged",
            "type": "event"
        },
        {
            "anonymous": false,
            "inputs": [
                {
                    "indexed": false,
                    "internalType": "bytes32",
                    "name": "id",
                    "type": "bytes32"
                },
                {
                    "indexed": true,
                    "internalType": "address",
                    "name": "owner",
                    "type": "address"
                },
                {
                    "indexed": true,
                    "internalType": "address",
                    "name": "recipient",
                    "type": "address"
                }
            ],
            "name": "AssetOwnershipOffered",
            "type": "event"
        },
        {
            "anonymous": false,
            "inputs": [
                {
                    "indexed": true,
                    "internalType": "uint256",
                    "name": "tokenId",
                    "type": "uint256"
                },
                {
                    "indexed": true,
                    "internalType": "address",
                    "name": "nftContract",
                    "type": "address"
                },
                {
                    "indexed": true,
                    "internalType": "address",
                    "name": "owner",
                    "type": "address"
                }
            ],
            "name": "AssetUpdated",
            "type": "event"
        },
        {
            "anonymous": false,
            "inputs": [
                {
                    "indexed": true,
                    "internalType": "address",
                    "name": "previousOwner",
                    "type": "address"
                },
                {
                    "indexed": true,
                    "internalType": "address",
                    "name": "newOwner",
                    "type": "address"
                }
            ],
            "name": "OwnershipTransferred",
            "type": "event"
        },
        {
            "inputs": [
                {
                    "internalType": "bytes32",
                    "name": "",
                    "type": "bytes32"
                }
            ],
            "name": "assets",
            "outputs": [
                {
                    "internalType": "bytes32",
                    "name": "id",
                    "type": "bytes32"
                },
                {
                    "internalType": "uint256",
                    "name": "tokenId",
                    "type": "uint256"
                },
                {
                    "internalType": "address",
                    "name": "nftContract",
                    "type": "address"
                },
                {
                    "internalType": "uint256",
                    "name": "numSales",
                    "type": "uint256"
                },
                {
                    "internalType": "uint256",
                    "name": "royalties",
                    "type": "uint256"
                },
                {
                    "internalType": "address",
                    "name": "owner",
                    "type": "address"
                },
                {
                    "internalType": "address",
                    "name": "creator",
                    "type": "address"
                },
                {
                    "internalType": "address",
                    "name": "recipient",
                    "type": "address"
                }
            ],
            "stateMutability": "view",
            "type": "function"
        },
        {
            "inputs": [
                {
                    "components": [
                        {
                            "components": [
                                {
                                    "internalType": "bytes32",
                                    "name": "id",
                                    "type": "bytes32"
                                },
                                {
                                    "internalType": "uint256",
                                    "name": "tokenId",
                                    "type": "uint256"
                                },
                                {
                                    "internalType": "address",
                                    "name": "nftContract",
                                    "type": "address"
                                },
                                {
                                    "internalType": "uint256",
                                    "name": "numSales",
                                    "type": "uint256"
                                },
                                {
                                    "internalType": "uint256",
                                    "name": "royalties",
                                    "type": "uint256"
                                },
                                {
                                    "internalType": "address",
                                    "name": "owner",
                                    "type": "address"
                                },
                                {
                                    "internalType": "address",
                                    "name": "creator",
                                    "type": "address"
                                },
                                {
                                    "internalType": "address",
                                    "name": "recipient",
                                    "type": "address"
                                }
                            ],
                            "internalType": "struct GIVEMarketplace.Asset",
                            "name": "asset",
                            "type": "tuple"
                        },
                        {
                            "internalType": "address",
                            "name": "fromAddress",
                            "type": "address"
                        },
                        {
                            "internalType": "address",
                            "name": "toAddress",
                            "type": "address"
                        },
                        {
                            "internalType": "uint256",
                            "name": "orderType",
                            "type": "uint256"
                        },
                        {
                            "internalType": "uint256",
                            "name": "subPrice",
                            "type": "uint256"
                        },
                        {
                            "internalType": "uint256",
                            "name": "price",
                            "type": "uint256"
                        }
                    ],
                    "internalType": "struct GIVEMarketplace.Order",
                    "name": "order",
                    "type": "tuple"
                },
                {
                    "internalType": "address",
                    "name": "toAddress",
                    "type": "address"
                }
            ],
            "name": "cancelOrder",
            "outputs": [],
            "stateMutability": "nonpayable",
            "type": "function"
        },
        {
            "inputs": [
                {
                    "internalType": "bytes32",
                    "name": "assetId",
                    "type": "bytes32"
                }
            ],
            "name": "claimAsset",
            "outputs": [],
            "stateMutability": "nonpayable",
            "type": "function"
        },
        {
            "inputs": [],
            "name": "claimOwnership",
            "outputs": [],
            "stateMutability": "nonpayable",
            "type": "function"
        },
        {
            "inputs": [
                {
                    "internalType": "bytes32",
                    "name": "assetId",
                    "type": "bytes32"
                },
                {
                    "internalType": "uint256",
                    "name": "tokenId",
                    "type": "uint256"
                },
                {
                    "internalType": "address",
                    "name": "nftContract",
                    "type": "address"
                },
                {
                    "internalType": "uint256",
                    "name": "numSales",
                    "type": "uint256"
                },
                {
                    "internalType": "uint256",
                    "name": "royalties",
                    "type": "uint256"
                },
                {
                    "internalType": "address",
                    "name": "owner",
                    "type": "address"
                },
                {
                    "internalType": "address",
                    "name": "creator",
                    "type": "address"
                }
            ],
            "name": "createAsset",
            "outputs": [],
            "stateMutability": "nonpayable",
            "type": "function"
        },
        {
            "inputs": [
                {
                    "components": [
                        {
                            "internalType": "bytes32",
                            "name": "id",
                            "type": "bytes32"
                        },
                        {
                            "internalType": "uint256",
                            "name": "tokenId",
                            "type": "uint256"
                        },
                        {
                            "internalType": "address",
                            "name": "nftContract",
                            "type": "address"
                        },
                        {
                            "internalType": "uint256",
                            "name": "numSales",
                            "type": "uint256"
                        },
                        {
                            "internalType": "uint256",
                            "name": "royalties",
                            "type": "uint256"
                        },
                        {
                            "internalType": "address",
                            "name": "owner",
                            "type": "address"
                        },
                        {
                            "internalType": "address",
                            "name": "creator",
                            "type": "address"
                        },
                        {
                            "internalType": "address",
                            "name": "recipient",
                            "type": "address"
                        }
                    ],
                    "internalType": "struct GIVEMarketplace.Asset",
                    "name": "asset",
                    "type": "tuple"
                },
                {
                    "internalType": "address",
                    "name": "fromAddress",
                    "type": "address"
                },
                {
                    "internalType": "address",
                    "name": "toAddress",
                    "type": "address"
                },
                {
                    "internalType": "uint256",
                    "name": "orderType",
                    "type": "uint256"
                },
                {
                    "internalType": "uint256",
                    "name": "subPrice",
                    "type": "uint256"
                }
            ],
            "name": "createOrder",
            "outputs": [],
            "stateMutability": "nonpayable",
            "type": "function"
        },
        {
            "inputs": [],
            "name": "fulfillOrder",
            "outputs": [],
            "stateMutability": "nonpayable",
            "type": "function"
        },
        {
            "inputs": [
                {
                    "internalType": "bytes32",
                    "name": "id",
                    "type": "bytes32"
                }
            ],
            "name": "getAsset",
            "outputs": [
                {
                    "internalType": "uint256",
                    "name": "tokenId",
                    "type": "uint256"
                },
                {
                    "internalType": "address",
                    "name": "nftContract",
                    "type": "address"
                },
                {
                    "internalType": "uint256",
                    "name": "numSales",
                    "type": "uint256"
                },
                {
                    "internalType": "uint256",
                    "name": "royalties",
                    "type": "uint256"
                },
                {
                    "internalType": "address",
                    "name": "owner",
                    "type": "address"
                },
                {
                    "internalType": "address",
                    "name": "creator",
                    "type": "address"
                }
            ],
            "stateMutability": "view",
            "type": "function"
        },
        {
            "inputs": [
                {
                    "internalType": "uint256",
                    "name": "tokenId",
                    "type": "uint256"
                },
                {
                    "internalType": "address",
                    "name": "toAddress",
                    "type": "address"
                }
            ],
            "name": "getBuyOrder",
            "outputs": [],
            "stateMutability": "nonpayable",
            "type": "function"
        },
        {
            "inputs": [
                {
                    "internalType": "uint256",
                    "name": "tokenId",
                    "type": "uint256"
                }
            ],
            "name": "getBuyOrders",
            "outputs": [
                {
                    "components": [
                        {
                            "components": [
                                {
                                    "internalType": "bytes32",
                                    "name": "id",
                                    "type": "bytes32"
                                },
                                {
                                    "internalType": "uint256",
                                    "name": "tokenId",
                                    "type": "uint256"
                                },
                                {
                                    "internalType": "address",
                                    "name": "nftContract",
                                    "type": "address"
                                },
                                {
                                    "internalType": "uint256",
                                    "name": "numSales",
                                    "type": "uint256"
                                },
                                {
                                    "internalType": "uint256",
                                    "name": "royalties",
                                    "type": "uint256"
                                },
                                {
                                    "internalType": "address",
                                    "name": "owner",
                                    "type": "address"
                                },
                                {
                                    "internalType": "address",
                                    "name": "creator",
                                    "type": "address"
                                },
                                {
                                    "internalType": "address",
                                    "name": "recipient",
                                    "type": "address"
                                }
                            ],
                            "internalType": "struct GIVEMarketplace.Asset",
                            "name": "asset",
                            "type": "tuple"
                        },
                        {
                            "internalType": "address",
                            "name": "fromAddress",
                            "type": "address"
                        },
                        {
                            "internalType": "address",
                            "name": "toAddress",
                            "type": "address"
                        },
                        {
                            "internalType": "uint256",
                            "name": "orderType",
                            "type": "uint256"
                        },
                        {
                            "internalType": "uint256",
                            "name": "subPrice",
                            "type": "uint256"
                        },
                        {
                            "internalType": "uint256",
                            "name": "price",
                            "type": "uint256"
                        }
                    ],
                    "internalType": "struct GIVEMarketplace.Order[]",
                    "name": "_buyOrders",
                    "type": "tuple[]"
                }
            ],
            "stateMutability": "nonpayable",
            "type": "function"
        },
        {
            "inputs": [],
            "name": "getOrderLocal",
            "outputs": [],
            "stateMutability": "nonpayable",
            "type": "function"
        },
        {
            "inputs": [
                {
                    "internalType": "uint256",
                    "name": "tokenId",
                    "type": "uint256"
                }
            ],
            "name": "getSellOrder",
            "outputs": [
                {
                    "components": [
                        {
                            "components": [
                                {
                                    "internalType": "bytes32",
                                    "name": "id",
                                    "type": "bytes32"
                                },
                                {
                                    "internalType": "uint256",
                                    "name": "tokenId",
                                    "type": "uint256"
                                },
                                {
                                    "internalType": "address",
                                    "name": "nftContract",
                                    "type": "address"
                                },
                                {
                                    "internalType": "uint256",
                                    "name": "numSales",
                                    "type": "uint256"
                                },
                                {
                                    "internalType": "uint256",
                                    "name": "royalties",
                                    "type": "uint256"
                                },
                                {
                                    "internalType": "address",
                                    "name": "owner",
                                    "type": "address"
                                },
                                {
                                    "internalType": "address",
                                    "name": "creator",
                                    "type": "address"
                                },
                                {
                                    "internalType": "address",
                                    "name": "recipient",
                                    "type": "address"
                                }
                            ],
                            "internalType": "struct GIVEMarketplace.Asset",
                            "name": "asset",
                            "type": "tuple"
                        },
                        {
                            "internalType": "address",
                            "name": "fromAddress",
                            "type": "address"
                        },
                        {
                            "internalType": "address",
                            "name": "toAddress",
                            "type": "address"
                        },
                        {
                            "internalType": "uint256",
                            "name": "orderType",
                            "type": "uint256"
                        },
                        {
                            "internalType": "uint256",
                            "name": "subPrice",
                            "type": "uint256"
                        },
                        {
                            "internalType": "uint256",
                            "name": "price",
                            "type": "uint256"
                        }
                    ],
                    "internalType": "struct GIVEMarketplace.Order",
                    "name": "_sellOrder",
                    "type": "tuple"
                }
            ],
            "stateMutability": "nonpayable",
            "type": "function"
        },
        {
            "inputs": [
                {
                    "internalType": "bytes32",
                    "name": "assetId",
                    "type": "bytes32"
                },
                {
                    "internalType": "address",
                    "name": "recipient",
                    "type": "address"
                }
            ],
            "name": "offerAsset",
            "outputs": [],
            "stateMutability": "nonpayable",
            "type": "function"
        },
        {
            "inputs": [],
            "name": "owner",
            "outputs": [
                {
                    "internalType": "address",
                    "name": "",
                    "type": "address"
                }
            ],
            "stateMutability": "view",
            "type": "function"
        },
        {
            "inputs": [],
            "name": "paymentToken",
            "outputs": [
                {
                    "internalType": "contract ERC20",
                    "name": "",
                    "type": "address"
                }
            ],
            "stateMutability": "view",
            "type": "function"
        },
        {
            "inputs": [],
            "name": "pendingOwner",
            "outputs": [
                {
                    "internalType": "address",
                    "name": "",
                    "type": "address"
                }
            ],
            "stateMutability": "view",
            "type": "function"
        },
        {
            "inputs": [
                {
                    "internalType": "bytes32",
                    "name": "assetId",
                    "type": "bytes32"
                },
                {
                    "internalType": "address",
                    "name": "recipient",
                    "type": "address"
                }
            ],
            "name": "transferAsset",
            "outputs": [],
            "stateMutability": "nonpayable",
            "type": "function"
        },
        {
            "inputs": [
                {
                    "internalType": "address",
                    "name": "newOwner",
                    "type": "address"
                }
            ],
            "name": "transferOwnership",
            "outputs": [],
            "stateMutability": "nonpayable",
            "type": "function"
        },
        {
            "inputs": [
                {
                    "internalType": "bytes32",
                    "name": "assetId",
                    "type": "bytes32"
                },
                {
                    "internalType": "uint256",
                    "name": "tokenId",
                    "type": "uint256"
                },
                {
                    "internalType": "address",
                    "name": "nftContract",
                    "type": "address"
                },
                {
                    "internalType": "uint256",
                    "name": "numSales",
                    "type": "uint256"
                },
                {
                    "internalType": "uint256",
                    "name": "royalties",
                    "type": "uint256"
                },
                {
                    "internalType": "address",
                    "name": "owner",
                    "type": "address"
                },
                {
                    "internalType": "address",
                    "name": "creator",
                    "type": "address"
                }
            ],
            "name": "updateAsset",
            "outputs": [],
            "stateMutability": "nonpayable",
            "type": "function"
        }
    ],
    "bytecode": "608060405234801561001057600080fd5b50600080546001600160a01b03191633179055611ac1806100326000396000f3fe608060405234801561001057600080fd5b50600436106101215760003560e01c80636ad527f3116100ad578063aecdb7f311610071578063aecdb7f31461023c578063b18313921461025c578063bfe058631461026f578063e30c397814610282578063f2fde38b1461028a57610121565b80636ad527f3146101d45780638da5cb5b146101e75780638e76fab4146101ef5780639fda5b6614610202578063a21389381461022957610121565b8063390ce0d3116100f4578063390ce0d3146101915780634e71e0c8146101b157806353693be1146101b95780635cc3a79e146101b9578063663636d9146101c157610121565b806307a9dcce146101265780632cc3ce801461013b5780633013ce2914610169578063323078c81461017e575b600080fd5b61013961013436600461159c565b61029d565b005b61014e6101493660046114e4565b610544565b60405161016096959493929190611a16565b60405180910390f35b610171610611565b60405161016091906117da565b61013961018c3660046114fc565b610620565b6101a461019f3660046114e4565b610731565b6040516101609190611a07565b6101396107fc565b61013961088a565b6101396101cf366004611696565b61088c565b6101396101e23660046114fc565b610890565b610171610950565b6101396101fd3660046114e4565b61095f565b6102156102103660046114e4565b610a14565b604051610160989796959493929190611846565b61013961023736600461152b565b610a68565b61024f61024a3660046114e4565b610b94565b60405161016091906117ee565b61013961026a36600461152b565b610ca7565b61013961027d3660046115fa565b610cbf565b610171610e2e565b6101396102983660046114c1565b610e3d565b81600114156103de576040518060c00160405280868152602001856001600160a01b03168152602001846001600160a01b03168152602001838152602001828152602001606483606d02816102ee57fe5b04905260208681015160009081526005808352604091829020845180518255808501516001830155808401516002830180546001600160a01b03199081166001600160a01b03938416179091556060808401516003860155608080850151600487015560a080860151978701805485169886169890981790975560c0850151600687018054851691861691909117905560e09094015160078601805484169185169190911790559688015160088501805483169184169190911790559487015160098401805490961691161790935592840151600a84015590830151600b83015590910151600c9091015561053d565b816002141561053d5760066000866020015181526020019081526020016000206040518060c00160405280878152602001866001600160a01b03168152602001856001600160a01b03168152602001848152602001838152602001606484606d028161044657fe5b049052815460018082018455600093845260209384902083518051600d90940290910192835580850151918301919091556040808201516002840180546001600160a01b03199081166001600160a01b03938416179091556060808501516003870155608080860151600488015560a080870151600589018054861691871691909117905560c0870151600689018054861691871691909117905560e0909601516007880180548516918616919091179055978701516008870180548416918516919091179055928601516009860180549092169216919091179055830151600a83015592820151600b820155910151600c909101555b5050505050565b60008060008060008061055687610e89565b949a509298509096509450925090506001600160a01b0382161561057957610608565b6003546040516259879d60e71b81526001600160a01b0390911690632cc3ce80906105a8908a9060040161183d565b60c06040518083038186803b1580156105c057600080fd5b505afa1580156105d4573d6000803e3d6000fd5b505050506040513d601f19601f820116820180604052508101906105f891906116a8565b949a509298509096509450925090505b91939550919395565b6002546001600160a01b031681565b81600061062c82610544565b5094505050506001600160a01b038216151590506106655760405162461bcd60e51b815260040161065c906118b0565b60405180910390fd5b6001600160a01b03811633148061068657506000546001600160a01b031633145b6106a25760405162461bcd60e51b815260040161065c90611931565b6106ab84610f2f565b506000848152600460205260408082206007810180546001600160a01b038089166001600160a01b03199283168117909355600590930154855490911690831617938490559151919216907feb7358347f1a0517733fb1f4eb0ebd938fd43027d25335d8cc7834c75277636b9061072390889061183d565b60405180910390a350505050565b61073961138b565b5060008181526005602081815260409283902083516101c081018552815460c08201908152600183015460e083015260028301546001600160a01b039081166101008401526003840154610120840152600484015461014084015294830154851661016083015260068301548516610180830152600783015485166101a083015281526008820154841692810192909252600981015490921692810192909252600a8101546060830152600b8101546080830152600c015460a08201525b919050565b6001546001600160a01b031633146108265760405162461bcd60e51b815260040161065c90611960565b600154600080546040516001600160a01b0393841693909116917f8be0079c531659141344cd1fd0a4f28419497f9722a3daafe3b4186f6b6457e091a360018054600080546001600160a01b03199081166001600160a01b03841617909155169055565b565b5050565b81600061089c82610544565b5094505050506001600160a01b038216151590506108cc5760405162461bcd60e51b815260040161065c906118b0565b6001600160a01b0381163314806108ed57506000546001600160a01b031633145b6109095760405162461bcd60e51b815260040161065c90611931565b61091284610f2f565b5050506000918252600460205260409091206005810180546001600160a01b039093166001600160a01b031993841617905560070180549091169055565b6000546001600160a01b031681565b61096881610f2f565b50600081815260046020526040902060078101546001600160a01b031633146109a35760405162461bcd60e51b815260040161065c90611905565b60058101546040516001600160a01b039091169033907f5f1d7ad3d0b91a2946af370d76b0bf06e64e30823ac015d430edcb12d545101a906109e690869061183d565b60405180910390a36005810180546001600160a01b0319908116331790915560079091018054909116905550565b600460208190526000918252604090912080546001820154600283015460038401549484015460058501546006860154600790960154949693956001600160a01b0393841695929391821692908216911688565b866000610a7482610544565b5094505050506001600160a01b03821615159050610aa45760405162461bcd60e51b815260040161065c906118b0565b6001600160a01b038116331480610ac557506000546001600160a01b031633145b610ae15760405162461bcd60e51b815260040161065c90611931565b610aea89610f2f565b5060008981526004602081905260408083208c8155600181018c90556002810180546001600160a01b03808e166001600160a01b03199283161792839055600384018d90559483018b90556005830180548b871690831617908190556006840180548b8816931692909217909155925191949284169316918c917f7ae4a5e0d22d4c331f9f8a9a6b7ad22eebaa396ce7ad40169f9588de652b0b799190a450505050505050505050565b606060066000838152602001908152602001600020805480602002602001604051908101604052809291908181526020016000905b82821015610c9c576000848152602090819020604080516101c081018252600d8602909201805460c0840190815260018083015460e086015260028301546001600160a01b03908116610100870152600384015461012087015260048401546101408701526005840154811661016087015260068401548116610180870152600784015481166101a08701529185526008830154821685870152600983015490911692840192909252600a8101546060840152600b8101546080840152600c015460a08301529083529092019101610bc9565b505050509050919050565b610cb687878787878787611166565b50505050505050565b816060015160011415610d5c578151602090810151600090815260059182905260408120818155600181018290556002810180546001600160a01b03199081169091556003820183905560048201839055928101805484169055600681018054841690556007810180548416905560088101805484169055600981018054909316909255600a8201819055600b8201819055600c9091015561088c565b81606001516002141561088c5760005b8251602090810151600090815260069091526040902054811015610e2957816001600160a01b03166006600085600001516020015181526020019081526020016000208281548110610dba57fe5b600091825260209091206009600d9092020101546001600160a01b03161415610e215782516020908101516000908152600690915260409020805482908110610dff57fe5b600091825260209091206009600d909202010180546001600160a01b03191690555b600101610d6c565b505050565b6001546001600160a01b031681565b6000546001600160a01b03163314610e675760405162461bcd60e51b815260040161065c906119e4565b600180546001600160a01b0319166001600160a01b0392909216919091179055565b600080600080600080610e9a6113d9565b505050600094855250506004602081815260409485902085516101008101875281548152600182015492810183905260028201546001600160a01b0390811697820188905260038301546060830181905294830154608083018190526005840154821660a084018190526006850154831660c0850181905260079095015490921660e090930192909252929793955093509091565b6000818152600460205260408120805415610f4e5760009150506107f7565b6003546040516259879d60e71b8152600091829182918291829182916001600160a01b0390911690632cc3ce8090610f8a908c9060040161183d565b60c06040518083038186803b158015610fa257600080fd5b505afa158015610fb6573d6000803e3d6000fd5b505050506040513d601f19601f82011682018060405250810190610fda91906116a8565b95509550955095509550955060006001600160a01b0316826001600160a01b031614156110115760009750505050505050506107f7565b888760000181905550858760010181905550848760020160006101000a8154816001600160a01b0302191690836001600160a01b03160217905550838760030181905550828760040181905550818760050160006101000a8154816001600160a01b0302191690836001600160a01b03160217905550808760060160006101000a8154816001600160a01b0302191690836001600160a01b0316021790555086600101548760020160009054906101000a90046001600160a01b03166001600160a01b03168860050160009054906101000a90046001600160a01b03166001600160a01b03167f46b85be0abe9e70675d5d46131779feaa9ee52350184e06f8e1d93af1a5af76d8a600001548b600301548c600401548d60060160009054906101000a90046001600160a01b031660405161114f949392919061188c565b60405180910390a450600198975050505050505050565b856111835760405162461bcd60e51b815260040161065c9061198a565b6001600160a01b0385166111a95760405162461bcd60e51b815260040161065c906119b5565b60006111b488610544565b50945050506001600160a01b0383161591506111e490505760405162461bcd60e51b815260040161065c906118d8565b604051806101000160405280898152602001888152602001876001600160a01b03168152602001868152602001858152602001846001600160a01b03168152602001836001600160a01b0316815260200160006001600160a01b0316815250600460008a8152602001908152602001600020600082015181600001556020820151816001015560408201518160020160006101000a8154816001600160a01b0302191690836001600160a01b03160217905550606082015181600301556080820151816004015560a08201518160050160006101000a8154816001600160a01b0302191690836001600160a01b0316021790555060c08201518160060160006101000a8154816001600160a01b0302191690836001600160a01b0316021790555060e08201518160070160006101000a8154816001600160a01b0302191690836001600160a01b0316021790555090505086866001600160a01b0316836001600160a01b03167fe54e4e6ced10d1337ec64fed99fb9aad940e736ebe0948c2e2b4732409ff57118660405161137991906117da565b60405180910390a45050505050505050565b6040518060c0016040528061139e6113d9565b815260200160006001600160a01b0316815260200160006001600160a01b031681526020016000815260200160008152602001600081525090565b6040805161010081018252600080825260208201819052918101829052606081018290526080810182905260a0810182905260c0810182905260e081019190915290565b803561142881611a73565b92915050565b6000610100808385031215611441578182fd5b61144a81611a4c565b9150508135815260208201356020820152604082013561146981611a73565b80604083015250606082013560608201526080820135608082015260a082013561149281611a73565b60a08201526114a48360c0840161141d565b60c08201526114b68360e0840161141d565b60e082015292915050565b6000602082840312156114d2578081fd5b81356114dd81611a73565b9392505050565b6000602082840312156114f5578081fd5b5035919050565b6000806040838503121561150e578081fd5b82359150602083013561152081611a73565b809150509250929050565b600080600080600080600060e0888a031215611545578283fd5b8735965060208801359550604088013561155e81611a73565b9450606088013593506080880135925060a088013561157c81611a73565b915060c088013561158c81611a73565b8091505092959891949750929550565b600080600080600061018086880312156115b4578081fd5b6115be878761142e565b94506101008601356115cf81611a73565b93506101208601356115e081611a73565b949793965093946101408101359450610160013592915050565b6000808284036101c081121561160e578283fd5b6101a08082121561161d578384fd5b61162760c0611a4c565b9150611633868661142e565b825261164386610100870161141d565b602083015261165686610120870161141d565b60408301526101408501356060830152610160850135608083015261018085013560a083015281935061168b8682870161141d565b925050509250929050565b6000806040838503121561150e578182fd5b60008060008060008060c087890312156116c0578182fd5b8651955060208701516116d281611a73565b80955050604087015193506060870151925060808701516116f281611a73565b60a088015190925061170381611a73565b809150509295509295509295565b6001600160a01b03169052565b8051805183526020810151602084015260408101516117406040850182611711565b50606081015160608401526080810151608084015260a081015161176760a0850182611711565b5060c081015161177a60c0850182611711565b5060e081015161178d60e0850182611711565b505060208101516117a2610100840182611711565b5060408101516117b6610120840182611711565b506060810151610140830152608081015161016083015260a0015161018090910152565b6001600160a01b0391909116815260200190565b6020808252825182820181905260009190848201906040850190845b818110156118315761181d83855161171e565b928401926101a0929092019160010161180a565b50909695505050505050565b90815260200190565b97885260208801969096526001600160a01b03948516604088015260608701939093526080860191909152821660a0850152811660c08401521660e08201526101000190565b938452602084019290925260408301526001600160a01b0316606082015260800190565b6020808252600e908201526d195c9c9bdc97db9bdd119bdd5b9960921b604082015260600190565b6020808252601390820152726572726f725f616c726561647945786973747360681b604082015260600190565b602080825260129082015271195c9c9bdc97db9bdd14195c9b5a5d1d195960721b604082015260600190565b6020808252601590820152746572726f725f61737365744f776e6572734f6e6c7960581b604082015260600190565b60208082526010908201526f37b7363ca832b73234b733a7bbb732b960811b604082015260600190565b602080825260119082015270195c9c9bdc97db9d5b1b151bdad95b9259607a1b604082015260600190565b602080825260159082015274195c9c9bdc97db9d5b1b1b999d10dbdb9d1c9858dd605a1b604082015260600190565b60208082526009908201526837b7363ca7bbb732b960b91b604082015260600190565b6101a08101611428828461171e565b9586526001600160a01b03948516602087015260408601939093526060850191909152821660808401521660a082015260c00190565b60405181810167ffffffffffffffff81118282101715611a6b57600080fd5b604052919050565b6001600160a01b0381168114611a8857600080fd5b5056fea26469706673582212206679baf09f678e6911338753fb6de96a21a4ab69115974aa13b7c4ff32b835f364736f6c63430006070033",
    "sourcePath": "c:/Users/tonys/OneDrive/Desktop/marketplace-contracts/contracts/NFTMarketplace.sol",
    "compiler": {
        "name": "solc",
        "version": "0.6.7+commit.b8d736ae"
    },
    "functionHashes": {
        "assets(bytes32)": "9fda5b66",
        "cancelOrder(((bytes32,uint256,address,uint256,uint256,address,address,address),address,address,uint256,uint256,uint256),address)": "bfe05863",
        "claimAsset(bytes32)": "8e76fab4",
        "claimOwnership()": "4e71e0c8",
        "createAsset(bytes32,uint256,address,uint256,uint256,address,address)": "b1831392",
        "createOrder((bytes32,uint256,address,uint256,uint256,address,address,address),address,address,uint256,uint256)": "07a9dcce",
        "fulfillOrder()": "53693be1",
        "getAsset(bytes32)": "2cc3ce80",
        "getBuyOrder(uint256,address)": "663636d9",
        "getBuyOrders(uint256)": "aecdb7f3",
        "getOrderLocal()": "5cc3a79e",
        "getSellOrder(uint256)": "390ce0d3",
        "offerAsset(bytes32,address)": "323078c8",
        "owner()": "8da5cb5b",
        "paymentToken()": "3013ce29",
        "pendingOwner()": "e30c3978",
        "transferAsset(bytes32,address)": "6ad527f3",
        "transferOwnership(address)": "f2fde38b",
        "updateAsset(bytes32,uint256,address,uint256,uint256,address,address)": "a2138938"
    },
    "gasEstimates": {
        "creation": {
            "codeDepositCost": "1369800",
            "executionCost": "22266",
            "totalCost": "1392066"
        },
        "external": {
            "assets(bytes32)": "7202",
            "cancelOrder(((bytes32,uint256,address,uint256,uint256,address,address,address),address,address,uint256,uint256,uint256),address)": "infinite",
            "claimAsset(bytes32)": "infinite",
            "claimOwnership()": "45864",
            "createAsset(bytes32,uint256,address,uint256,uint256,address,address)": "infinite",
            "createOrder((bytes32,uint256,address,uint256,uint256,address,address,address),address,address,uint256,uint256)": "infinite",
            "fulfillOrder()": "211",
            "getAsset(bytes32)": "infinite",
            "getBuyOrder(uint256,address)": "442",
            "getBuyOrders(uint256)": "infinite",
            "getOrderLocal()": "233",
            "getSellOrder(uint256)": "infinite",
            "offerAsset(bytes32,address)": "infinite",
            "owner()": "1115",
            "paymentToken()": "1138",
            "pendingOwner()": "1158",
            "transferAsset(bytes32,address)": "infinite",
            "transferOwnership(address)": "22115",
            "updateAsset(bytes32,uint256,address,uint256,uint256,address,address)": "infinite"
        },
        "internal": {
            "_createAsset(bytes32,uint256,address,uint256,uint256,address,address)": "infinite",
            "_getAssetLocal(bytes32)": "infinite",
            "_importAssetIfNeeded(bytes32)": "infinite",
            "_importOrderIfNeeded()": "infinite",
            "_initialize()": "infinite"
        }
    }
}