{
    "contractName": "GIVEMarketplace",
    "abi": [
        {
            "inputs": [
                {
                    "internalType": "address",
                    "name": "paymentTokenAddress",
                    "type": "address"
                },
                {
                    "internalType": "address",
                    "name": "nonFungibleTokenAddress",
                    "type": "address"
                },
                {
                    "internalType": "address",
                    "name": "prevMarketplaceAddress",
                    "type": "address"
                }
            ],
            "stateMutability": "nonpayable",
            "type": "constructor"
        },
        {
            "anonymous": false,
            "inputs": [
                {
                    "indexed": true,
                    "internalType": "address",
                    "name": "creator",
                    "type": "address"
                },
                {
                    "indexed": true,
                    "internalType": "address",
                    "name": "nftContract",
                    "type": "address"
                },
                {
                    "indexed": true,
                    "internalType": "uint256",
                    "name": "tokenId",
                    "type": "uint256"
                },
                {
                    "indexed": false,
                    "internalType": "address",
                    "name": "owner",
                    "type": "address"
                }
            ],
            "name": "AssetCreated",
            "type": "event"
        },
        {
            "anonymous": false,
            "inputs": [
                {
                    "indexed": true,
                    "internalType": "address",
                    "name": "owner",
                    "type": "address"
                },
                {
                    "indexed": false,
                    "internalType": "bytes32",
                    "name": "id",
                    "type": "bytes32"
                },
                {
                    "indexed": true,
                    "internalType": "address",
                    "name": "nftContract",
                    "type": "address"
                },
                {
                    "indexed": true,
                    "internalType": "uint256",
                    "name": "tokenId",
                    "type": "uint256"
                },
                {
                    "indexed": false,
                    "internalType": "uint256",
                    "name": "numSales",
                    "type": "uint256"
                },
                {
                    "indexed": false,
                    "internalType": "uint256",
                    "name": "royalties",
                    "type": "uint256"
                },
                {
                    "indexed": false,
                    "internalType": "address",
                    "name": "creator",
                    "type": "address"
                }
            ],
            "name": "AssetImported",
            "type": "event"
        },
        {
            "anonymous": false,
            "inputs": [
                {
                    "indexed": true,
                    "internalType": "address",
                    "name": "newOwner",
                    "type": "address"
                },
                {
                    "indexed": false,
                    "internalType": "bytes32",
                    "name": "assetId",
                    "type": "bytes32"
                },
                {
                    "indexed": true,
                    "internalType": "address",
                    "name": "owner",
                    "type": "address"
                }
            ],
            "name": "AssetOwnershipChanged",
            "type": "event"
        },
        {
            "anonymous": false,
            "inputs": [
                {
                    "indexed": false,
                    "internalType": "bytes32",
                    "name": "id",
                    "type": "bytes32"
                },
                {
                    "indexed": true,
                    "internalType": "address",
                    "name": "owner",
                    "type": "address"
                },
                {
                    "indexed": true,
                    "internalType": "address",
                    "name": "recipient",
                    "type": "address"
                }
            ],
            "name": "AssetOwnershipOffered",
            "type": "event"
        },
        {
            "anonymous": false,
            "inputs": [
                {
                    "indexed": true,
                    "internalType": "uint256",
                    "name": "tokenId",
                    "type": "uint256"
                },
                {
                    "indexed": true,
                    "internalType": "address",
                    "name": "nftContract",
                    "type": "address"
                },
                {
                    "indexed": true,
                    "internalType": "address",
                    "name": "owner",
                    "type": "address"
                }
            ],
            "name": "AssetUpdated",
            "type": "event"
        },
        {
            "anonymous": false,
            "inputs": [
                {
                    "indexed": true,
                    "internalType": "address",
                    "name": "previousOwner",
                    "type": "address"
                },
                {
                    "indexed": true,
                    "internalType": "address",
                    "name": "newOwner",
                    "type": "address"
                }
            ],
            "name": "OwnershipTransferred",
            "type": "event"
        },
        {
            "anonymous": false,
            "inputs": [],
            "name": "enteredFunction",
            "type": "event"
        },
        {
            "anonymous": false,
            "inputs": [],
            "name": "gotAsset",
            "type": "event"
        },
        {
            "anonymous": false,
            "inputs": [],
            "name": "initialChecks",
            "type": "event"
        },
        {
            "inputs": [
                {
                    "internalType": "bytes32",
                    "name": "",
                    "type": "bytes32"
                }
            ],
            "name": "assets",
            "outputs": [
                {
                    "internalType": "bytes32",
                    "name": "id",
                    "type": "bytes32"
                },
                {
                    "internalType": "uint256",
                    "name": "tokenId",
                    "type": "uint256"
                },
                {
                    "internalType": "address",
                    "name": "nftContract",
                    "type": "address"
                },
                {
                    "internalType": "uint256",
                    "name": "numSales",
                    "type": "uint256"
                },
                {
                    "internalType": "uint256",
                    "name": "royalties",
                    "type": "uint256"
                },
                {
                    "internalType": "address",
                    "name": "assetOwner",
                    "type": "address"
                },
                {
                    "internalType": "address",
                    "name": "creator",
                    "type": "address"
                },
                {
                    "internalType": "address",
                    "name": "recipient",
                    "type": "address"
                }
            ],
            "stateMutability": "view",
            "type": "function"
        },
        {
            "inputs": [
                {
                    "components": [
                        {
                            "components": [
                                {
                                    "internalType": "bytes32",
                                    "name": "id",
                                    "type": "bytes32"
                                },
                                {
                                    "internalType": "uint256",
                                    "name": "tokenId",
                                    "type": "uint256"
                                },
                                {
                                    "internalType": "address",
                                    "name": "nftContract",
                                    "type": "address"
                                },
                                {
                                    "internalType": "uint256",
                                    "name": "numSales",
                                    "type": "uint256"
                                },
                                {
                                    "internalType": "uint256",
                                    "name": "royalties",
                                    "type": "uint256"
                                },
                                {
                                    "internalType": "address",
                                    "name": "assetOwner",
                                    "type": "address"
                                },
                                {
                                    "internalType": "address",
                                    "name": "creator",
                                    "type": "address"
                                },
                                {
                                    "internalType": "address",
                                    "name": "recipient",
                                    "type": "address"
                                }
                            ],
                            "internalType": "struct GIVEMarketplace.Asset",
                            "name": "asset",
                            "type": "tuple"
                        },
                        {
                            "internalType": "address",
                            "name": "fromAddress",
                            "type": "address"
                        },
                        {
                            "internalType": "address",
                            "name": "toAddress",
                            "type": "address"
                        },
                        {
                            "internalType": "uint256",
                            "name": "orderType",
                            "type": "uint256"
                        },
                        {
                            "internalType": "uint256",
                            "name": "subPrice",
                            "type": "uint256"
                        },
                        {
                            "internalType": "uint256",
                            "name": "price",
                            "type": "uint256"
                        }
                    ],
                    "internalType": "struct GIVEMarketplace.Order",
                    "name": "order",
                    "type": "tuple"
                },
                {
                    "internalType": "address",
                    "name": "toAddress",
                    "type": "address"
                }
            ],
            "name": "cancelOrder",
            "outputs": [],
            "stateMutability": "nonpayable",
            "type": "function"
        },
        {
            "inputs": [
                {
                    "internalType": "bytes32",
                    "name": "assetId",
                    "type": "bytes32"
                }
            ],
            "name": "claimAsset",
            "outputs": [],
            "stateMutability": "nonpayable",
            "type": "function"
        },
        {
            "inputs": [
                {
                    "internalType": "bytes32",
                    "name": "assetId",
                    "type": "bytes32"
                },
                {
                    "internalType": "uint256",
                    "name": "tokenId",
                    "type": "uint256"
                },
                {
                    "internalType": "address",
                    "name": "nftContract",
                    "type": "address"
                },
                {
                    "internalType": "uint256",
                    "name": "numSales",
                    "type": "uint256"
                },
                {
                    "internalType": "uint256",
                    "name": "royalties",
                    "type": "uint256"
                },
                {
                    "internalType": "address",
                    "name": "assetOwner",
                    "type": "address"
                },
                {
                    "internalType": "address",
                    "name": "creator",
                    "type": "address"
                }
            ],
            "name": "createAsset",
            "outputs": [],
            "stateMutability": "nonpayable",
            "type": "function"
        },
        {
            "inputs": [
                {
                    "components": [
                        {
                            "internalType": "bytes32",
                            "name": "id",
                            "type": "bytes32"
                        },
                        {
                            "internalType": "uint256",
                            "name": "tokenId",
                            "type": "uint256"
                        },
                        {
                            "internalType": "address",
                            "name": "nftContract",
                            "type": "address"
                        },
                        {
                            "internalType": "uint256",
                            "name": "numSales",
                            "type": "uint256"
                        },
                        {
                            "internalType": "uint256",
                            "name": "royalties",
                            "type": "uint256"
                        },
                        {
                            "internalType": "address",
                            "name": "assetOwner",
                            "type": "address"
                        },
                        {
                            "internalType": "address",
                            "name": "creator",
                            "type": "address"
                        },
                        {
                            "internalType": "address",
                            "name": "recipient",
                            "type": "address"
                        }
                    ],
                    "internalType": "struct GIVEMarketplace.Asset",
                    "name": "asset",
                    "type": "tuple"
                },
                {
                    "internalType": "address",
                    "name": "fromAddress",
                    "type": "address"
                },
                {
                    "internalType": "address",
                    "name": "toAddress",
                    "type": "address"
                },
                {
                    "internalType": "uint256",
                    "name": "orderType",
                    "type": "uint256"
                },
                {
                    "internalType": "uint256",
                    "name": "subPrice",
                    "type": "uint256"
                }
            ],
            "name": "createOrder",
            "outputs": [],
            "stateMutability": "nonpayable",
            "type": "function"
        },
        {
            "inputs": [],
            "name": "fulfillOrder",
            "outputs": [],
            "stateMutability": "nonpayable",
            "type": "function"
        },
        {
            "inputs": [
                {
                    "internalType": "bytes32",
                    "name": "id",
                    "type": "bytes32"
                }
            ],
            "name": "getAsset",
            "outputs": [
                {
                    "internalType": "uint256",
                    "name": "tokenId",
                    "type": "uint256"
                },
                {
                    "internalType": "address",
                    "name": "nftContract",
                    "type": "address"
                },
                {
                    "internalType": "uint256",
                    "name": "numSales",
                    "type": "uint256"
                },
                {
                    "internalType": "uint256",
                    "name": "royalties",
                    "type": "uint256"
                },
                {
                    "internalType": "address",
                    "name": "assetOwner",
                    "type": "address"
                },
                {
                    "internalType": "address",
                    "name": "creator",
                    "type": "address"
                }
            ],
            "stateMutability": "view",
            "type": "function"
        },
        {
            "inputs": [
                {
                    "internalType": "uint256",
                    "name": "tokenId",
                    "type": "uint256"
                },
                {
                    "internalType": "address",
                    "name": "toAddress",
                    "type": "address"
                }
            ],
            "name": "getBuyOrder",
            "outputs": [],
            "stateMutability": "nonpayable",
            "type": "function"
        },
        {
            "inputs": [
                {
                    "internalType": "uint256",
                    "name": "tokenId",
                    "type": "uint256"
                }
            ],
            "name": "getBuyOrders",
            "outputs": [
                {
                    "components": [
                        {
                            "components": [
                                {
                                    "internalType": "bytes32",
                                    "name": "id",
                                    "type": "bytes32"
                                },
                                {
                                    "internalType": "uint256",
                                    "name": "tokenId",
                                    "type": "uint256"
                                },
                                {
                                    "internalType": "address",
                                    "name": "nftContract",
                                    "type": "address"
                                },
                                {
                                    "internalType": "uint256",
                                    "name": "numSales",
                                    "type": "uint256"
                                },
                                {
                                    "internalType": "uint256",
                                    "name": "royalties",
                                    "type": "uint256"
                                },
                                {
                                    "internalType": "address",
                                    "name": "assetOwner",
                                    "type": "address"
                                },
                                {
                                    "internalType": "address",
                                    "name": "creator",
                                    "type": "address"
                                },
                                {
                                    "internalType": "address",
                                    "name": "recipient",
                                    "type": "address"
                                }
                            ],
                            "internalType": "struct GIVEMarketplace.Asset",
                            "name": "asset",
                            "type": "tuple"
                        },
                        {
                            "internalType": "address",
                            "name": "fromAddress",
                            "type": "address"
                        },
                        {
                            "internalType": "address",
                            "name": "toAddress",
                            "type": "address"
                        },
                        {
                            "internalType": "uint256",
                            "name": "orderType",
                            "type": "uint256"
                        },
                        {
                            "internalType": "uint256",
                            "name": "subPrice",
                            "type": "uint256"
                        },
                        {
                            "internalType": "uint256",
                            "name": "price",
                            "type": "uint256"
                        }
                    ],
                    "internalType": "struct GIVEMarketplace.Order[]",
                    "name": "_buyOrders",
                    "type": "tuple[]"
                }
            ],
            "stateMutability": "nonpayable",
            "type": "function"
        },
        {
            "inputs": [],
            "name": "getOrderLocal",
            "outputs": [],
            "stateMutability": "nonpayable",
            "type": "function"
        },
        {
            "inputs": [
                {
                    "internalType": "uint256",
                    "name": "tokenId",
                    "type": "uint256"
                }
            ],
            "name": "getSellOrder",
            "outputs": [
                {
                    "components": [
                        {
                            "components": [
                                {
                                    "internalType": "bytes32",
                                    "name": "id",
                                    "type": "bytes32"
                                },
                                {
                                    "internalType": "uint256",
                                    "name": "tokenId",
                                    "type": "uint256"
                                },
                                {
                                    "internalType": "address",
                                    "name": "nftContract",
                                    "type": "address"
                                },
                                {
                                    "internalType": "uint256",
                                    "name": "numSales",
                                    "type": "uint256"
                                },
                                {
                                    "internalType": "uint256",
                                    "name": "royalties",
                                    "type": "uint256"
                                },
                                {
                                    "internalType": "address",
                                    "name": "assetOwner",
                                    "type": "address"
                                },
                                {
                                    "internalType": "address",
                                    "name": "creator",
                                    "type": "address"
                                },
                                {
                                    "internalType": "address",
                                    "name": "recipient",
                                    "type": "address"
                                }
                            ],
                            "internalType": "struct GIVEMarketplace.Asset",
                            "name": "asset",
                            "type": "tuple"
                        },
                        {
                            "internalType": "address",
                            "name": "fromAddress",
                            "type": "address"
                        },
                        {
                            "internalType": "address",
                            "name": "toAddress",
                            "type": "address"
                        },
                        {
                            "internalType": "uint256",
                            "name": "orderType",
                            "type": "uint256"
                        },
                        {
                            "internalType": "uint256",
                            "name": "subPrice",
                            "type": "uint256"
                        },
                        {
                            "internalType": "uint256",
                            "name": "price",
                            "type": "uint256"
                        }
                    ],
                    "internalType": "struct GIVEMarketplace.Order",
                    "name": "_sellOrder",
                    "type": "tuple"
                }
            ],
            "stateMutability": "nonpayable",
            "type": "function"
        },
        {
            "inputs": [],
            "name": "nonFungibleToken",
            "outputs": [
                {
                    "internalType": "contract giveNFTv2",
                    "name": "",
                    "type": "address"
                }
            ],
            "stateMutability": "view",
            "type": "function"
        },
        {
            "inputs": [
                {
                    "internalType": "bytes32",
                    "name": "assetId",
                    "type": "bytes32"
                },
                {
                    "internalType": "address",
                    "name": "recipient",
                    "type": "address"
                }
            ],
            "name": "offerAsset",
            "outputs": [],
            "stateMutability": "nonpayable",
            "type": "function"
        },
        {
            "inputs": [],
            "name": "owner",
            "outputs": [
                {
                    "internalType": "address",
                    "name": "",
                    "type": "address"
                }
            ],
            "stateMutability": "view",
            "type": "function"
        },
        {
            "inputs": [],
            "name": "paymentToken",
            "outputs": [
                {
                    "internalType": "contract ERC20",
                    "name": "",
                    "type": "address"
                }
            ],
            "stateMutability": "view",
            "type": "function"
        },
        {
            "inputs": [],
            "name": "prev_marketplace",
            "outputs": [
                {
                    "internalType": "contract IGIVEMarketplace",
                    "name": "",
                    "type": "address"
                }
            ],
            "stateMutability": "view",
            "type": "function"
        },
        {
            "inputs": [],
            "name": "renounceOwnership",
            "outputs": [],
            "stateMutability": "nonpayable",
            "type": "function"
        },
        {
            "inputs": [
                {
                    "internalType": "bytes32",
                    "name": "assetId",
                    "type": "bytes32"
                },
                {
                    "internalType": "address",
                    "name": "recipient",
                    "type": "address"
                }
            ],
            "name": "transferAsset",
            "outputs": [],
            "stateMutability": "nonpayable",
            "type": "function"
        },
        {
            "inputs": [
                {
                    "internalType": "address",
                    "name": "newOwner",
                    "type": "address"
                }
            ],
            "name": "transferOwnership",
            "outputs": [],
            "stateMutability": "nonpayable",
            "type": "function"
        },
        {
            "inputs": [],
            "name": "txFee",
            "outputs": [
                {
                    "internalType": "uint256",
                    "name": "",
                    "type": "uint256"
                }
            ],
            "stateMutability": "view",
            "type": "function"
        },
        {
            "inputs": [
                {
                    "internalType": "bytes32",
                    "name": "assetId",
                    "type": "bytes32"
                },
                {
                    "internalType": "uint256",
                    "name": "tokenId",
                    "type": "uint256"
                },
                {
                    "internalType": "address",
                    "name": "nftContract",
                    "type": "address"
                },
                {
                    "internalType": "uint256",
                    "name": "numSales",
                    "type": "uint256"
                },
                {
                    "internalType": "uint256",
                    "name": "royalties",
                    "type": "uint256"
                },
                {
                    "internalType": "address",
                    "name": "assetOwner",
                    "type": "address"
                },
                {
                    "internalType": "address",
                    "name": "creator",
                    "type": "address"
                }
            ],
            "name": "updateAsset",
            "outputs": [],
            "stateMutability": "nonpayable",
            "type": "function"
        }
    ],
    "bytecode": "60806040523480156200001157600080fd5b5060405162001cb138038062001cb18339810160408190526200003491620000d3565b600080546001600160a01b031916339081178255604051909182917f8be0079c531659141344cd1fd0a4f28419497f9722a3daafe3b4186f6b6457e0908290a350600280546001600160a01b03199081166001600160a01b0394851617909155600180548216948416949094179093556003805490931691161790556200011d565b80516001600160a01b0381168114620000ce57600080fd5b919050565b600080600060608486031215620000e957600080fd5b620000f484620000b6565b92506200010460208501620000b6565b91506200011460408501620000b6565b90509250925092565b611b84806200012d6000396000f3fe608060405234801561001057600080fd5b50600436106101375760003560e01c80637ac27d19116100b8578063a21389381161007c578063a213893814610454578063aecdb7f314610467578063b183139214610487578063bfe058631461049a578063cf820461146104ad578063f2fde38b146104c457600080fd5b80637ac27d19146103595780638da5cb5b1461036c5780638dc889b31461037d5780638e76fab4146103905780639fda5b66146103a357600080fd5b806353693be1116100ff57806353693be11461014f5780635cc3a79e1461014f578063663636d91461032c5780636ad527f31461033e578063715018a61461035157600080fd5b806307a9dcce1461013c5780632cc3ce80146101515780633013ce29146101a3578063323078c8146101ce578063390ce0d3146101e1575b600080fd5b61014f61014a3660046117a0565b6104d7565b005b61016461015f3660046116e5565b610794565b604080519687526001600160a01b0395861660208801528601939093526060850191909152821660808401521660a082015260c0015b60405180910390f35b6001546101b6906001600160a01b031681565b6040516001600160a01b03909116815260200161019a565b61014f6101dc3660046116fe565b6108e6565b61031f6101ef3660046116e5565b604080516101c081018252600060c0820181815260e08301829052610100830182905261012083018290526101408301829052610160830182905261018083018290526101a08301829052825260208201819052918101829052606081018290526080810182905260a08101919091525060009081526006602081815260409283902083516101c081018552815460c08201908152600183015460e083015260028301546001600160a01b039081166101008401526003840154610120840152600484015461014084015260058401548116610160840152948301548516610180830152600783015485166101a083015281526008820154841692810192909252600981015490921692810192909252600a8101546060830152600b8101546080830152600c015460a082015290565b60405161019a9190611a62565b61014f61033a3660046116fe565b5050565b61014f61034c3660046116fe565b6109f7565b61014f610ac9565b6002546101b6906001600160a01b031681565b6000546001600160a01b03166101b6565b6003546101b6906001600160a01b031681565b61014f61039e3660046116e5565b610b6d565b6104066103b13660046116e5565b600560208190526000918252604090912080546001820154600283015460038401546004850154958501546006860154600790960154949693956001600160a01b039384169592949391821692908216911688565b6040805198895260208901979097526001600160a01b039586169688019690965260608701939093526080860191909152821660a0850152811660c08401521660e08201526101000161019a565b61014f61046236600461172e565b610c42565b61047a6104753660046116e5565b610d78565b60405161019a91906119bc565b61014f61049536600461172e565b610e8b565b61014f6104a83660046117ff565b610ea3565b6104b660045481565b60405190815260200161019a565b61014f6104d23660046116c1565b611025565b8160011415610623576040518060c00160405280868152602001856001600160a01b03168152602001846001600160a01b03168152602001838152602001828152602001606483606d61052a9190611ad0565b6105349190611aae565b905260208681015160009081526006808352604091829020845180518255808501516001830155808401516002830180546001600160a01b03199081166001600160a01b03938416179091556060808401516003860155608080850151600487015560a080860151600588018054861691871691909117905560c0860151978701805485169886169890981790975560e09094015160078601805484169185169190911790559688015160088501805483169184169190911790559487015160098401805490961691161790935592840151600a84015590830151600b83015590910151600c9091015561078d565b816002141561078d5760076000866020015181526020019081526020016000206040518060c00160405280878152602001866001600160a01b03168152602001856001600160a01b03168152602001848152602001838152602001606484606d61068d9190611ad0565b6106979190611aae565b9052815460018082018455600093845260209384902083518051600d90940290910192835580850151918301919091556040808201516002840180546001600160a01b03199081166001600160a01b03938416179091556060808501516003870155608080860151600488015560a080870151600589018054861691871691909117905560c0870151600689018054861691871691909117905560e0909601516007880180548516918616919091179055978701516008870180548416918516919091179055928601516009860180549092169216919091179055830151600a83015592820151600b820155910151600c909101555b5050505050565b60008060008060008061082f8760009081526005602081815260409283902083516101008101855281548152600182015492810183905260028201546001600160a01b0390811695820186905260038301546060830181905260048401546080840181905295840154821660a084018190526006850154831660c0850181905260079095015490921660e09093019290925292959093929190565b949a509298509096509450925090506001600160a01b03821615610852576108dd565b6003546040516259879d60e71b8152600481018990526001600160a01b0390911690632cc3ce809060240160c06040518083038186803b15801561089557600080fd5b505afa1580156108a9573d6000803e3d6000fd5b505050506040513d601f19601f820116820180604052508101906108cd919061189e565b949a509298509096509450925090505b91939550919395565b8160006108f282610794565b5094505050506001600160a01b0382161515905061092b5760405162461bcd60e51b815260040161092290611a0b565b60405180910390fd5b6001600160a01b03811633148061095b5750336109506000546001600160a01b031690565b6001600160a01b0316145b6109775760405162461bcd60e51b815260040161092290611a33565b6109808461113f565b506000848152600560208181526040928390206007810180546001600160a01b0319166001600160a01b0389811691821790925591909301549351888152939092169283917feb7358347f1a0517733fb1f4eb0ebd938fd43027d25335d8cc7834c75277636b910160405180910390a35050505050565b816000610a0382610794565b5094505050506001600160a01b03821615159050610a335760405162461bcd60e51b815260040161092290611a0b565b6001600160a01b038116331480610a63575033610a586000546001600160a01b031690565b6001600160a01b0316145b610a7f5760405162461bcd60e51b815260040161092290611a33565b610a888461113f565b505050600091825260056020819052604090922091820180546001600160a01b039092166001600160a01b0319928316179055600790910180549091169055565b6000546001600160a01b03163314610b235760405162461bcd60e51b815260206004820181905260248201527f4f776e61626c653a2063616c6c6572206973206e6f7420746865206f776e65726044820152606401610922565b600080546040516001600160a01b03909116907f8be0079c531659141344cd1fd0a4f28419497f9722a3daafe3b4186f6b6457e0908390a3600080546001600160a01b0319169055565b610b768161113f565b50600081815260056020526040902060078101546001600160a01b03163314610bd65760405162461bcd60e51b8152602060048201526012602482015271195c9c9bdc97db9bdd14195c9b5a5d1d195960721b6044820152606401610922565b60058101546040518381526001600160a01b039091169033907f5f1d7ad3d0b91a2946af370d76b0bf06e64e30823ac015d430edcb12d545101a9060200160405180910390a36005810180546001600160a01b0319908116331790915560079091018054909116905550565b866000610c4e82610794565b5094505050506001600160a01b03821615159050610c7e5760405162461bcd60e51b815260040161092290611a0b565b6001600160a01b038116331480610cae575033610ca36000546001600160a01b031690565b6001600160a01b0316145b610cca5760405162461bcd60e51b815260040161092290611a33565b610cd38961113f565b5060008981526005602081905260408083208c8155600181018c90556002810180546001600160a01b03808e166001600160a01b03199283168117909355600384018d9055600484018c905594830180548b87169083168117909155600684018054968b1696909216959095179055915190938c917f7ae4a5e0d22d4c331f9f8a9a6b7ad22eebaa396ce7ad40169f9588de652b0b799190a450505050505050505050565b606060076000838152602001908152602001600020805480602002602001604051908101604052809291908181526020016000905b82821015610e80576000848152602090819020604080516101c081018252600d8602909201805460c0840190815260018083015460e086015260028301546001600160a01b03908116610100870152600384015461012087015260048401546101408701526005840154811661016087015260068401548116610180870152600784015481166101a08701529185526008830154821685870152600983015490911692840192909252600a8101546060840152600b8101546080840152600c015460a08301529083529092019101610dad565b505050509050919050565b610e9a878787878787876112d4565b50505050505050565b816060015160011415610f3d575051602090810151600090815260069182905260408120818155600181018290556002810180546001600160a01b03199081169091556003820183905560048201839055600582018054821690559281018054841690556007810180548416905560088101805484169055600981018054909316909255600a8201819055600b8201819055600c90910155565b81606001516002141561033a5760005b825160209081015160009081526007909152604090205481101561102057816001600160a01b03166007600085600001516020015181526020019081526020016000208281548110610fa157610fa1611b20565b600091825260209091206009600d9092020101546001600160a01b0316141561100e5782516020908101516000908152600790915260409020805482908110610fec57610fec611b20565b600091825260209091206009600d909202010180546001600160a01b03191690555b8061101881611aef565b915050610f4d565b505050565b6000546001600160a01b0316331461107f5760405162461bcd60e51b815260206004820181905260248201527f4f776e61626c653a2063616c6c6572206973206e6f7420746865206f776e65726044820152606401610922565b6001600160a01b0381166110e45760405162461bcd60e51b815260206004820152602660248201527f4f776e61626c653a206e6577206f776e657220697320746865207a65726f206160448201526564647265737360d01b6064820152608401610922565b600080546040516001600160a01b03808516939216917f8be0079c531659141344cd1fd0a4f28419497f9722a3daafe3b4186f6b6457e091a3600080546001600160a01b0319166001600160a01b0392909216919091179055565b600081815260056020526040812080541561115d5750600092915050565b6003546040516259879d60e71b815260048101859052600091829182918291829182916001600160a01b0390911690632cc3ce809060240160c06040518083038186803b1580156111ad57600080fd5b505afa1580156111c1573d6000803e3d6000fd5b505050506040513d601f19601f820116820180604052508101906111e5919061189e565b95509550955095509550955060006001600160a01b0316826001600160a01b0316141561121b5750600098975050505050505050565b888755600187018690556002870180546001600160a01b038781166001600160a01b0319928316811790935560038a0187905560048a0186905560058a018054868316908416811790915560068b018054928616929093168217909255604080518d8152602081018990529081018790526060810191909152889291907f46b85be0abe9e70675d5d46131779feaa9ee52350184e06f8e1d93af1a5af76d9060800160405180910390a450600198975050505050505050565b6040517fb40fd33812242538fef13d776965df15679ce1665f5537adddfc8bcf575ab91590600090a18561133e5760405162461bcd60e51b8152602060048201526011602482015270195c9c9bdc97db9d5b1b151bdad95b9259607a1b6044820152606401610922565b6001600160a01b03851661138c5760405162461bcd60e51b8152602060048201526015602482015274195c9c9bdc97db9d5b1b1b999d10dbdb9d1c9858dd605a1b6044820152606401610922565b6040517f7cfa436c3ae6c41762537c58acaa044db3a84eb538e0d9a9c332438aca32c61e90600090a160006113c088610794565b506040519095507fb151259d2aa7f8fbb4cbfecdc4d79c968eca557c88a1a107f02742cb51841e62945060009350915050a16001600160a01b0381161561143f5760405162461bcd60e51b81526020600482015260136024820152726572726f725f616c726561647945786973747360681b6044820152606401610922565b604051806101000160405280898152602001888152602001876001600160a01b03168152602001868152602001858152602001846001600160a01b03168152602001836001600160a01b0316815260200160006001600160a01b0316815250600560008a8152602001908152602001600020600082015181600001556020820151816001015560408201518160020160006101000a8154816001600160a01b0302191690836001600160a01b03160217905550606082015181600301556080820151816004015560a08201518160050160006101000a8154816001600160a01b0302191690836001600160a01b0316021790555060c08201518160060160006101000a8154816001600160a01b0302191690836001600160a01b0316021790555060e08201518160070160006101000a8154816001600160a01b0302191690836001600160a01b0316021790555090505086866001600160a01b0316836001600160a01b03167fe54e4e6ced10d1337ec64fed99fb9aad940e736ebe0948c2e2b4732409ff5711866040516115e391906001600160a01b0391909116815260200190565b60405180910390a45050505050505050565b803561160081611b36565b919050565b600061010080838503121561161957600080fd5b6040519081019067ffffffffffffffff8211818310171561164a57634e487b7160e01b600052604160045260246000fd5b6040918252833581526020808501359082015291508201358161166c82611b36565b816040820152606084013560608201526080840135608082015261169260a085016115f5565b60a08201526116a360c085016115f5565b60c08201526116b460e085016115f5565b60e0820152505092915050565b6000602082840312156116d357600080fd5b81356116de81611b36565b9392505050565b6000602082840312156116f757600080fd5b5035919050565b6000806040838503121561171157600080fd5b82359150602083013561172381611b36565b809150509250929050565b600080600080600080600060e0888a03121561174957600080fd5b8735965060208801359550604088013561176281611b36565b9450606088013593506080880135925060a088013561178081611b36565b915060c088013561179081611b36565b8091505092959891949750929550565b600080600080600061018086880312156117b957600080fd5b6117c38787611605565b94506101008601356117d481611b36565b93506101208601356117e581611b36565b949793965093946101408101359450610160013592915050565b6000808284036101c081121561181457600080fd5b6101a08082121561182457600080fd5b61182c611a77565b91506118388686611605565b825261010085013561184981611b36565b602083015261012085013561185d81611b36565b806040840152506101408501356060830152610160850135608083015261018085013560a08301528193506118938186016115f5565b925050509250929050565b60008060008060008060c087890312156118b757600080fd5b8651955060208701516118c981611b36565b80955050604087015193506060870151925060808701516118e981611b36565b60a08801519092506118fa81611b36565b809150509295509295509295565b80518051835260208101516020840152604081015160018060a01b03808216604086015260608301516060860152608083015160808601528060a08401511660a08601528060c08401511660c0860152505060e0810151905061197660e08401826001600160a01b03169052565b5060208101516001600160a01b039081166101008401526040820151166101208301526060810151610140830152608081015161016083015260a0015161018090910152565b6020808252825182820181905260009190848201906040850190845b818110156119ff576119eb838551611908565b928401926101a092909201916001016119d8565b50909695505050505050565b6020808252600e908201526d195c9c9bdc97db9bdd119bdd5b9960921b604082015260600190565b6020808252601590820152746572726f725f61737365744f776e6572734f6e6c7960581b604082015260600190565b6101a08101611a718284611908565b92915050565b60405160c0810167ffffffffffffffff81118282101715611aa857634e487b7160e01b600052604160045260246000fd5b60405290565b600082611acb57634e487b7160e01b600052601260045260246000fd5b500490565b6000816000190483118215151615611aea57611aea611b0a565b500290565b6000600019821415611b0357611b03611b0a565b5060010190565b634e487b7160e01b600052601160045260246000fd5b634e487b7160e01b600052603260045260246000fd5b6001600160a01b0381168114611b4b57600080fd5b5056fea2646970667358221220c36a66d3e3efdfdf9f736e098ef0173f4f1366bfa3419df4c8f86fccb8600f9564736f6c63430008060033",
    "sourcePath": "e:/ECSSEN/Code Repository/marketplace-contracts/contracts/GIVEMarketplace.sol",
    "compiler": {
        "name": "solc",
        "version": "0.8.6+commit.11564f7e"
    },
    "functionHashes": {
        "assets(bytes32)": "9fda5b66",
        "cancelOrder(((bytes32,uint256,address,uint256,uint256,address,address,address),address,address,uint256,uint256,uint256),address)": "bfe05863",
        "claimAsset(bytes32)": "8e76fab4",
        "createAsset(bytes32,uint256,address,uint256,uint256,address,address)": "b1831392",
        "createOrder((bytes32,uint256,address,uint256,uint256,address,address,address),address,address,uint256,uint256)": "07a9dcce",
        "fulfillOrder()": "53693be1",
        "getAsset(bytes32)": "2cc3ce80",
        "getBuyOrder(uint256,address)": "663636d9",
        "getBuyOrders(uint256)": "aecdb7f3",
        "getOrderLocal()": "5cc3a79e",
        "getSellOrder(uint256)": "390ce0d3",
        "nonFungibleToken()": "7ac27d19",
        "offerAsset(bytes32,address)": "323078c8",
        "owner()": "8da5cb5b",
        "paymentToken()": "3013ce29",
        "prev_marketplace()": "8dc889b3",
        "renounceOwnership()": "715018a6",
        "transferAsset(bytes32,address)": "6ad527f3",
        "transferOwnership(address)": "f2fde38b",
        "txFee()": "cf820461",
        "updateAsset(bytes32,uint256,address,uint256,uint256,address,address)": "a2138938"
    },
    "gasEstimates": {
        "creation": {
            "codeDepositCost": "1408800",
            "executionCost": "infinite",
            "totalCost": "infinite"
        },
        "external": {
            "assets(bytes32)": "17585",
            "cancelOrder(((bytes32,uint256,address,uint256,uint256,address,address,address),address,address,uint256,uint256,uint256),address)": "infinite",
            "claimAsset(bytes32)": "infinite",
            "createAsset(bytes32,uint256,address,uint256,uint256,address,address)": "infinite",
            "createOrder((bytes32,uint256,address,uint256,uint256,address,address,address),address,address,uint256,uint256)": "infinite",
            "fulfillOrder()": "143",
            "getAsset(bytes32)": "infinite",
            "getBuyOrder(uint256,address)": "386",
            "getBuyOrders(uint256)": "infinite",
            "getOrderLocal()": "165",
            "getSellOrder(uint256)": "28997",
            "nonFungibleToken()": "2360",
            "offerAsset(bytes32,address)": "infinite",
            "owner()": "2376",
            "paymentToken()": "2405",
            "prev_marketplace()": "2404",
            "renounceOwnership()": "30276",
            "transferAsset(bytes32,address)": "infinite",
            "transferOwnership(address)": "30526",
            "txFee()": "2405",
            "updateAsset(bytes32,uint256,address,uint256,uint256,address,address)": "infinite"
        },
        "internal": {
            "_createAsset(bytes32,uint256,address,uint256,uint256,address,address)": "infinite",
            "_getAssetLocal(bytes32)": "infinite",
            "_importAssetIfNeeded(bytes32)": "infinite",
            "_importOrderIfNeeded()": "infinite",
            "_initialize(address,address,address)": "infinite"
        }
    }
}