{
  "contractName": "GIVEMarketplace",
  "abi": [
    {
      "inputs": [
        {
          "internalType": "address",
          "name": "paymentTokenAddress",
          "type": "address"
        },
        {
          "internalType": "address",
          "name": "nonFungibleTokenAddress",
          "type": "address"
        },
        {
          "internalType": "address",
          "name": "prevMarketplaceAddress",
          "type": "address"
        }
      ],
      "stateMutability": "nonpayable",
      "type": "constructor"
    },
    {
      "anonymous": false,
      "inputs": [
        {
          "indexed": true,
          "internalType": "address",
          "name": "creator",
          "type": "address"
        },
        {
          "indexed": true,
          "internalType": "address",
          "name": "nftContract",
          "type": "address"
        },
        {
          "indexed": true,
          "internalType": "uint256",
          "name": "tokenId",
          "type": "uint256"
        },
        {
          "indexed": false,
          "internalType": "address",
          "name": "owner",
          "type": "address"
        }
      ],
      "name": "AssetCreated",
      "type": "event"
    },
    {
      "anonymous": false,
      "inputs": [
        {
          "indexed": true,
          "internalType": "address",
          "name": "owner",
          "type": "address"
        },
        {
          "indexed": false,
          "internalType": "bytes32",
          "name": "id",
          "type": "bytes32"
        },
        {
          "indexed": true,
          "internalType": "address",
          "name": "nftContract",
          "type": "address"
        },
        {
          "indexed": true,
          "internalType": "uint256",
          "name": "tokenId",
          "type": "uint256"
        },
        {
          "indexed": false,
          "internalType": "uint256",
          "name": "numSales",
          "type": "uint256"
        },
        {
          "indexed": false,
          "internalType": "uint256",
          "name": "royalties",
          "type": "uint256"
        },
        {
          "indexed": false,
          "internalType": "address",
          "name": "creator",
          "type": "address"
        }
      ],
      "name": "AssetImported",
      "type": "event"
    },
    {
      "anonymous": false,
      "inputs": [
        {
          "indexed": true,
          "internalType": "address",
          "name": "newOwner",
          "type": "address"
        },
        {
          "indexed": false,
          "internalType": "bytes32",
          "name": "assetId",
          "type": "bytes32"
        },
        {
          "indexed": true,
          "internalType": "address",
          "name": "owner",
          "type": "address"
        }
      ],
      "name": "AssetOwnershipChanged",
      "type": "event"
    },
    {
      "anonymous": false,
      "inputs": [
        {
          "indexed": false,
          "internalType": "bytes32",
          "name": "id",
          "type": "bytes32"
        },
        {
          "indexed": true,
          "internalType": "address",
          "name": "owner",
          "type": "address"
        },
        {
          "indexed": true,
          "internalType": "address",
          "name": "recipient",
          "type": "address"
        }
      ],
      "name": "AssetOwnershipOffered",
      "type": "event"
    },
    {
      "anonymous": false,
      "inputs": [
        {
          "indexed": true,
          "internalType": "uint256",
          "name": "tokenId",
          "type": "uint256"
        },
        {
          "indexed": true,
          "internalType": "address",
          "name": "nftContract",
          "type": "address"
        },
        {
          "indexed": true,
          "internalType": "address",
          "name": "owner",
          "type": "address"
        }
      ],
      "name": "AssetUpdated",
      "type": "event"
    },
    {
      "anonymous": false,
      "inputs": [
        {
          "indexed": true,
          "internalType": "address",
          "name": "previousOwner",
          "type": "address"
        },
        {
          "indexed": true,
          "internalType": "address",
          "name": "newOwner",
          "type": "address"
        }
      ],
      "name": "OwnershipTransferred",
      "type": "event"
    },
    {
      "inputs": [
        {
          "internalType": "bytes32",
          "name": "",
          "type": "bytes32"
        }
      ],
      "name": "assets",
      "outputs": [
        {
          "internalType": "bytes32",
          "name": "id",
          "type": "bytes32"
        },
        {
          "internalType": "uint256",
          "name": "tokenId",
          "type": "uint256"
        },
        {
          "internalType": "address",
          "name": "nftContract",
          "type": "address"
        },
        {
          "internalType": "uint256",
          "name": "numSales",
          "type": "uint256"
        },
        {
          "internalType": "uint256",
          "name": "royalties",
          "type": "uint256"
        },
        {
          "internalType": "address",
          "name": "assetOwner",
          "type": "address"
        },
        {
          "internalType": "address",
          "name": "creator",
          "type": "address"
        },
        {
          "internalType": "address",
          "name": "recipient",
          "type": "address"
        }
      ],
      "stateMutability": "view",
      "type": "function",
      "constant": true
    },
    {
      "inputs": [],
      "name": "nonFungibleToken",
      "outputs": [
        {
          "internalType": "contract giveNFTv2",
          "name": "",
          "type": "address"
        }
      ],
      "stateMutability": "view",
      "type": "function",
      "constant": true
    },
    {
      "inputs": [],
      "name": "owner",
      "outputs": [
        {
          "internalType": "address",
          "name": "",
          "type": "address"
        }
      ],
      "stateMutability": "view",
      "type": "function",
      "constant": true
    },
    {
      "inputs": [],
      "name": "paymentToken",
      "outputs": [
        {
          "internalType": "contract ERC20",
          "name": "",
          "type": "address"
        }
      ],
      "stateMutability": "view",
      "type": "function",
      "constant": true
    },
    {
      "inputs": [],
      "name": "prev_marketplace",
      "outputs": [
        {
          "internalType": "contract IGIVEMarketplace",
          "name": "",
          "type": "address"
        }
      ],
      "stateMutability": "view",
      "type": "function",
      "constant": true
    },
    {
      "inputs": [],
      "name": "renounceOwnership",
      "outputs": [],
      "stateMutability": "nonpayable",
      "type": "function"
    },
    {
      "inputs": [
        {
          "internalType": "address",
          "name": "newOwner",
          "type": "address"
        }
      ],
      "name": "transferOwnership",
      "outputs": [],
      "stateMutability": "nonpayable",
      "type": "function"
    },
    {
      "inputs": [],
      "name": "txFee",
      "outputs": [
        {
          "internalType": "uint256",
          "name": "",
          "type": "uint256"
        }
      ],
      "stateMutability": "view",
      "type": "function",
      "constant": true
    },
    {
      "inputs": [
        {
          "internalType": "bytes32",
          "name": "id",
          "type": "bytes32"
        }
      ],
      "name": "getAsset",
      "outputs": [
        {
          "internalType": "uint256",
          "name": "tokenId",
          "type": "uint256"
        },
        {
          "internalType": "address",
          "name": "nftContract",
          "type": "address"
        },
        {
          "internalType": "uint256",
          "name": "numSales",
          "type": "uint256"
        },
        {
          "internalType": "uint256",
          "name": "royalties",
          "type": "uint256"
        },
        {
          "internalType": "address",
          "name": "assetOwner",
          "type": "address"
        },
        {
          "internalType": "address",
          "name": "creator",
          "type": "address"
        }
      ],
      "stateMutability": "view",
      "type": "function",
      "constant": true
    },
    {
      "inputs": [
        {
          "internalType": "bytes32",
          "name": "assetId",
          "type": "bytes32"
        },
        {
          "internalType": "uint256",
          "name": "tokenId",
          "type": "uint256"
        },
        {
          "internalType": "address",
          "name": "nftContract",
          "type": "address"
        },
        {
          "internalType": "uint256",
          "name": "numSales",
          "type": "uint256"
        },
        {
          "internalType": "uint256",
          "name": "royalties",
          "type": "uint256"
        },
        {
          "internalType": "address",
          "name": "assetOwner",
          "type": "address"
        },
        {
          "internalType": "address",
          "name": "creator",
          "type": "address"
        }
      ],
      "name": "createAsset",
      "outputs": [],
      "stateMutability": "nonpayable",
      "type": "function"
    },
    {
      "inputs": [
        {
          "internalType": "bytes32",
          "name": "assetId",
          "type": "bytes32"
        },
        {
          "internalType": "uint256",
          "name": "tokenId",
          "type": "uint256"
        },
        {
          "internalType": "address",
          "name": "nftContract",
          "type": "address"
        },
        {
          "internalType": "uint256",
          "name": "numSales",
          "type": "uint256"
        },
        {
          "internalType": "uint256",
          "name": "royalties",
          "type": "uint256"
        },
        {
          "internalType": "address",
          "name": "assetOwner",
          "type": "address"
        },
        {
          "internalType": "address",
          "name": "creator",
          "type": "address"
        }
      ],
      "name": "updateAsset",
      "outputs": [],
      "stateMutability": "nonpayable",
      "type": "function"
    },
    {
      "inputs": [
        {
          "internalType": "bytes32",
          "name": "assetId",
          "type": "bytes32"
        },
        {
          "internalType": "address",
          "name": "recipient",
          "type": "address"
        }
      ],
      "name": "offerAsset",
      "outputs": [],
      "stateMutability": "nonpayable",
      "type": "function"
    },
    {
      "inputs": [
        {
          "internalType": "bytes32",
          "name": "assetId",
          "type": "bytes32"
        }
      ],
      "name": "claimAsset",
      "outputs": [],
      "stateMutability": "nonpayable",
      "type": "function"
    },
    {
      "inputs": [
        {
          "internalType": "bytes32",
          "name": "assetId",
          "type": "bytes32"
        },
        {
          "internalType": "address",
          "name": "recipient",
          "type": "address"
        }
      ],
      "name": "transferAsset",
      "outputs": [],
      "stateMutability": "nonpayable",
      "type": "function"
    },
    {
      "inputs": [
        {
          "internalType": "uint256",
          "name": "tokenId",
          "type": "uint256"
        }
      ],
      "name": "getSellOrder",
      "outputs": [
        {
          "components": [
            {
              "components": [
                {
                  "internalType": "bytes32",
                  "name": "id",
                  "type": "bytes32"
                },
                {
                  "internalType": "uint256",
                  "name": "tokenId",
                  "type": "uint256"
                },
                {
                  "internalType": "address",
                  "name": "nftContract",
                  "type": "address"
                },
                {
                  "internalType": "uint256",
                  "name": "numSales",
                  "type": "uint256"
                },
                {
                  "internalType": "uint256",
                  "name": "royalties",
                  "type": "uint256"
                },
                {
                  "internalType": "address",
                  "name": "assetOwner",
                  "type": "address"
                },
                {
                  "internalType": "address",
                  "name": "creator",
                  "type": "address"
                },
                {
                  "internalType": "address",
                  "name": "recipient",
                  "type": "address"
                }
              ],
              "internalType": "struct GIVEMarketplace.Asset",
              "name": "asset",
              "type": "tuple"
            },
            {
              "internalType": "address",
              "name": "fromAddress",
              "type": "address"
            },
            {
              "internalType": "address",
              "name": "toAddress",
              "type": "address"
            },
            {
              "internalType": "uint256",
              "name": "orderType",
              "type": "uint256"
            },
            {
              "internalType": "uint256",
              "name": "subPrice",
              "type": "uint256"
            },
            {
              "internalType": "uint256",
              "name": "price",
              "type": "uint256"
            }
          ],
          "internalType": "struct GIVEMarketplace.Order",
          "name": "_sellOrder",
          "type": "tuple"
        }
      ],
      "stateMutability": "nonpayable",
      "type": "function"
    },
    {
      "inputs": [
        {
          "internalType": "uint256",
          "name": "tokenId",
          "type": "uint256"
        }
      ],
      "name": "getBuyOrders",
      "outputs": [
        {
          "components": [
            {
              "components": [
                {
                  "internalType": "bytes32",
                  "name": "id",
                  "type": "bytes32"
                },
                {
                  "internalType": "uint256",
                  "name": "tokenId",
                  "type": "uint256"
                },
                {
                  "internalType": "address",
                  "name": "nftContract",
                  "type": "address"
                },
                {
                  "internalType": "uint256",
                  "name": "numSales",
                  "type": "uint256"
                },
                {
                  "internalType": "uint256",
                  "name": "royalties",
                  "type": "uint256"
                },
                {
                  "internalType": "address",
                  "name": "assetOwner",
                  "type": "address"
                },
                {
                  "internalType": "address",
                  "name": "creator",
                  "type": "address"
                },
                {
                  "internalType": "address",
                  "name": "recipient",
                  "type": "address"
                }
              ],
              "internalType": "struct GIVEMarketplace.Asset",
              "name": "asset",
              "type": "tuple"
            },
            {
              "internalType": "address",
              "name": "fromAddress",
              "type": "address"
            },
            {
              "internalType": "address",
              "name": "toAddress",
              "type": "address"
            },
            {
              "internalType": "uint256",
              "name": "orderType",
              "type": "uint256"
            },
            {
              "internalType": "uint256",
              "name": "subPrice",
              "type": "uint256"
            },
            {
              "internalType": "uint256",
              "name": "price",
              "type": "uint256"
            }
          ],
          "internalType": "struct GIVEMarketplace.Order[]",
          "name": "_buyOrders",
          "type": "tuple[]"
        }
      ],
      "stateMutability": "nonpayable",
      "type": "function"
    },
    {
      "inputs": [
        {
          "internalType": "uint256",
          "name": "tokenId",
          "type": "uint256"
        },
        {
          "internalType": "address",
          "name": "toAddress",
          "type": "address"
        }
      ],
      "name": "getBuyOrder",
      "outputs": [],
      "stateMutability": "nonpayable",
      "type": "function"
    },
    {
      "inputs": [],
      "name": "getOrderLocal",
      "outputs": [],
      "stateMutability": "nonpayable",
      "type": "function"
    },
    {
      "inputs": [
        {
          "components": [
            {
              "internalType": "bytes32",
              "name": "id",
              "type": "bytes32"
            },
            {
              "internalType": "uint256",
              "name": "tokenId",
              "type": "uint256"
            },
            {
              "internalType": "address",
              "name": "nftContract",
              "type": "address"
            },
            {
              "internalType": "uint256",
              "name": "numSales",
              "type": "uint256"
            },
            {
              "internalType": "uint256",
              "name": "royalties",
              "type": "uint256"
            },
            {
              "internalType": "address",
              "name": "assetOwner",
              "type": "address"
            },
            {
              "internalType": "address",
              "name": "creator",
              "type": "address"
            },
            {
              "internalType": "address",
              "name": "recipient",
              "type": "address"
            }
          ],
          "internalType": "struct GIVEMarketplace.Asset",
          "name": "asset",
          "type": "tuple"
        },
        {
          "internalType": "address",
          "name": "fromAddress",
          "type": "address"
        },
        {
          "internalType": "address",
          "name": "toAddress",
          "type": "address"
        },
        {
          "internalType": "uint256",
          "name": "orderType",
          "type": "uint256"
        },
        {
          "internalType": "uint256",
          "name": "subPrice",
          "type": "uint256"
        }
      ],
      "name": "createOrder",
      "outputs": [],
      "stateMutability": "nonpayable",
      "type": "function"
    },
    {
      "inputs": [
        {
          "components": [
            {
              "components": [
                {
                  "internalType": "bytes32",
                  "name": "id",
                  "type": "bytes32"
                },
                {
                  "internalType": "uint256",
                  "name": "tokenId",
                  "type": "uint256"
                },
                {
                  "internalType": "address",
                  "name": "nftContract",
                  "type": "address"
                },
                {
                  "internalType": "uint256",
                  "name": "numSales",
                  "type": "uint256"
                },
                {
                  "internalType": "uint256",
                  "name": "royalties",
                  "type": "uint256"
                },
                {
                  "internalType": "address",
                  "name": "assetOwner",
                  "type": "address"
                },
                {
                  "internalType": "address",
                  "name": "creator",
                  "type": "address"
                },
                {
                  "internalType": "address",
                  "name": "recipient",
                  "type": "address"
                }
              ],
              "internalType": "struct GIVEMarketplace.Asset",
              "name": "asset",
              "type": "tuple"
            },
            {
              "internalType": "address",
              "name": "fromAddress",
              "type": "address"
            },
            {
              "internalType": "address",
              "name": "toAddress",
              "type": "address"
            },
            {
              "internalType": "uint256",
              "name": "orderType",
              "type": "uint256"
            },
            {
              "internalType": "uint256",
              "name": "subPrice",
              "type": "uint256"
            },
            {
              "internalType": "uint256",
              "name": "price",
              "type": "uint256"
            }
          ],
          "internalType": "struct GIVEMarketplace.Order",
          "name": "order",
          "type": "tuple"
        },
        {
          "internalType": "address",
          "name": "toAddress",
          "type": "address"
        }
      ],
      "name": "cancelOrder",
      "outputs": [],
      "stateMutability": "nonpayable",
      "type": "function"
    },
    {
      "inputs": [],
      "name": "fulfillOrder",
      "outputs": [],
      "stateMutability": "nonpayable",
      "type": "function"
    }
  ],
  "bytecode": "0x60806040523480156200001157600080fd5b5060405162001c3638038062001c368339810160408190526200003491620000d3565b600080546001600160a01b031916339081178255604051909182917f8be0079c531659141344cd1fd0a4f28419497f9722a3daafe3b4186f6b6457e0908290a350600280546001600160a01b03199081166001600160a01b0394851617909155600180548216948416949094179093556003805490931691161790556200011d565b80516001600160a01b0381168114620000ce57600080fd5b919050565b600080600060608486031215620000e957600080fd5b620000f484620000b6565b92506200010460208501620000b6565b91506200011460408501620000b6565b90509250925092565b611b09806200012d6000396000f3fe608060405234801561001057600080fd5b50600436106101375760003560e01c80637ac27d19116100b8578063a21389381161007c578063a213893814610454578063aecdb7f314610467578063b183139214610487578063bfe058631461049a578063cf820461146104ad578063f2fde38b146104c457600080fd5b80637ac27d19146103595780638da5cb5b1461036c5780638dc889b31461037d5780638e76fab4146103905780639fda5b66146103a357600080fd5b806353693be1116100ff57806353693be11461014f5780635cc3a79e1461014f578063663636d91461032c5780636ad527f31461033e578063715018a61461035157600080fd5b806307a9dcce1461013c5780632cc3ce80146101515780633013ce29146101a3578063323078c8146101ce578063390ce0d3146101e1575b600080fd5b61014f61014a366004611725565b6104d7565b005b61016461015f36600461166a565b610794565b604080519687526001600160a01b0395861660208801528601939093526060850191909152821660808401521660a082015260c0015b60405180910390f35b6001546101b6906001600160a01b031681565b6040516001600160a01b03909116815260200161019a565b61014f6101dc366004611683565b6108e6565b61031f6101ef36600461166a565b604080516101c081018252600060c0820181815260e08301829052610100830182905261012083018290526101408301829052610160830182905261018083018290526101a08301829052825260208201819052918101829052606081018290526080810182905260a08101919091525060009081526006602081815260409283902083516101c081018552815460c08201908152600183015460e083015260028301546001600160a01b039081166101008401526003840154610120840152600484015461014084015260058401548116610160840152948301548516610180830152600783015485166101a083015281526008820154841692810192909252600981015490921692810192909252600a8101546060830152600b8101546080830152600c015460a082015290565b60405161019a91906119e7565b61014f61033a366004611683565b5050565b61014f61034c366004611683565b6109f7565b61014f610ac9565b6002546101b6906001600160a01b031681565b6000546001600160a01b03166101b6565b6003546101b6906001600160a01b031681565b61014f61039e36600461166a565b610b6d565b6104066103b136600461166a565b600560208190526000918252604090912080546001820154600283015460038401546004850154958501546006860154600790960154949693956001600160a01b039384169592949391821692908216911688565b6040805198895260208901979097526001600160a01b039586169688019690965260608701939093526080860191909152821660a0850152811660c08401521660e08201526101000161019a565b61014f6104623660046116b3565b610c42565b61047a61047536600461166a565b610d78565b60405161019a9190611941565b61014f6104953660046116b3565b610e8b565b61014f6104a8366004611784565b610ea3565b6104b660045481565b60405190815260200161019a565b61014f6104d2366004611646565b611025565b8160011415610623576040518060c00160405280868152602001856001600160a01b03168152602001846001600160a01b03168152602001838152602001828152602001606483606d61052a9190611a55565b6105349190611a33565b905260208681015160009081526006808352604091829020845180518255808501516001830155808401516002830180546001600160a01b03199081166001600160a01b03938416179091556060808401516003860155608080850151600487015560a080860151600588018054861691871691909117905560c0860151978701805485169886169890981790975560e09094015160078601805484169185169190911790559688015160088501805483169184169190911790559487015160098401805490961691161790935592840151600a84015590830151600b83015590910151600c9091015561078d565b816002141561078d5760076000866020015181526020019081526020016000206040518060c00160405280878152602001866001600160a01b03168152602001856001600160a01b03168152602001848152602001838152602001606484606d61068d9190611a55565b6106979190611a33565b9052815460018082018455600093845260209384902083518051600d90940290910192835580850151918301919091556040808201516002840180546001600160a01b03199081166001600160a01b03938416179091556060808501516003870155608080860151600488015560a080870151600589018054861691871691909117905560c0870151600689018054861691871691909117905560e0909601516007880180548516918616919091179055978701516008870180548416918516919091179055928601516009860180549092169216919091179055830151600a83015592820151600b820155910151600c909101555b5050505050565b60008060008060008061082f8760009081526005602081815260409283902083516101008101855281548152600182015492810183905260028201546001600160a01b0390811695820186905260038301546060830181905260048401546080840181905295840154821660a084018190526006850154831660c0850181905260079095015490921660e09093019290925292959093929190565b949a509298509096509450925090506001600160a01b03821615610852576108dd565b6003546040516259879d60e71b8152600481018990526001600160a01b0390911690632cc3ce809060240160c06040518083038186803b15801561089557600080fd5b505afa1580156108a9573d6000803e3d6000fd5b505050506040513d601f19601f820116820180604052508101906108cd9190611823565b949a509298509096509450925090505b91939550919395565b8160006108f282610794565b5094505050506001600160a01b0382161515905061092b5760405162461bcd60e51b815260040161092290611990565b60405180910390fd5b6001600160a01b03811633148061095b5750336109506000546001600160a01b031690565b6001600160a01b0316145b6109775760405162461bcd60e51b8152600401610922906119b8565b6109808461113f565b506000848152600560208181526040928390206007810180546001600160a01b0319166001600160a01b0389811691821790925591909301549351888152939092169283917feb7358347f1a0517733fb1f4eb0ebd938fd43027d25335d8cc7834c75277636b910160405180910390a35050505050565b816000610a0382610794565b5094505050506001600160a01b03821615159050610a335760405162461bcd60e51b815260040161092290611990565b6001600160a01b038116331480610a63575033610a586000546001600160a01b031690565b6001600160a01b0316145b610a7f5760405162461bcd60e51b8152600401610922906119b8565b610a888461113f565b505050600091825260056020819052604090922091820180546001600160a01b039092166001600160a01b0319928316179055600790910180549091169055565b6000546001600160a01b03163314610b235760405162461bcd60e51b815260206004820181905260248201527f4f776e61626c653a2063616c6c6572206973206e6f7420746865206f776e65726044820152606401610922565b600080546040516001600160a01b03909116907f8be0079c531659141344cd1fd0a4f28419497f9722a3daafe3b4186f6b6457e0908390a3600080546001600160a01b0319169055565b610b768161113f565b50600081815260056020526040902060078101546001600160a01b03163314610bd65760405162461bcd60e51b8152602060048201526012602482015271195c9c9bdc97db9bdd14195c9b5a5d1d195960721b6044820152606401610922565b60058101546040518381526001600160a01b039091169033907f5f1d7ad3d0b91a2946af370d76b0bf06e64e30823ac015d430edcb12d545101a9060200160405180910390a36005810180546001600160a01b0319908116331790915560079091018054909116905550565b866000610c4e82610794565b5094505050506001600160a01b03821615159050610c7e5760405162461bcd60e51b815260040161092290611990565b6001600160a01b038116331480610cae575033610ca36000546001600160a01b031690565b6001600160a01b0316145b610cca5760405162461bcd60e51b8152600401610922906119b8565b610cd38961113f565b5060008981526005602081905260408083208c8155600181018c90556002810180546001600160a01b03808e166001600160a01b03199283168117909355600384018d9055600484018c905594830180548b87169083168117909155600684018054968b1696909216959095179055915190938c917f7ae4a5e0d22d4c331f9f8a9a6b7ad22eebaa396ce7ad40169f9588de652b0b799190a450505050505050505050565b606060076000838152602001908152602001600020805480602002602001604051908101604052809291908181526020016000905b82821015610e80576000848152602090819020604080516101c081018252600d8602909201805460c0840190815260018083015460e086015260028301546001600160a01b03908116610100870152600384015461012087015260048401546101408701526005840154811661016087015260068401548116610180870152600784015481166101a08701529185526008830154821685870152600983015490911692840192909252600a8101546060840152600b8101546080840152600c015460a08301529083529092019101610dad565b505050509050919050565b610e9a878787878787876112d4565b50505050505050565b816060015160011415610f3d575051602090810151600090815260069182905260408120818155600181018290556002810180546001600160a01b03199081169091556003820183905560048201839055600582018054821690559281018054841690556007810180548416905560088101805484169055600981018054909316909255600a8201819055600b8201819055600c90910155565b81606001516002141561033a5760005b825160209081015160009081526007909152604090205481101561102057816001600160a01b03166007600085600001516020015181526020019081526020016000208281548110610fa157610fa1611aa5565b600091825260209091206009600d9092020101546001600160a01b0316141561100e5782516020908101516000908152600790915260409020805482908110610fec57610fec611aa5565b600091825260209091206009600d909202010180546001600160a01b03191690555b8061101881611a74565b915050610f4d565b505050565b6000546001600160a01b0316331461107f5760405162461bcd60e51b815260206004820181905260248201527f4f776e61626c653a2063616c6c6572206973206e6f7420746865206f776e65726044820152606401610922565b6001600160a01b0381166110e45760405162461bcd60e51b815260206004820152602660248201527f4f776e61626c653a206e6577206f776e657220697320746865207a65726f206160448201526564647265737360d01b6064820152608401610922565b600080546040516001600160a01b03808516939216917f8be0079c531659141344cd1fd0a4f28419497f9722a3daafe3b4186f6b6457e091a3600080546001600160a01b0319166001600160a01b0392909216919091179055565b600081815260056020526040812080541561115d5750600092915050565b6003546040516259879d60e71b815260048101859052600091829182918291829182916001600160a01b0390911690632cc3ce809060240160c06040518083038186803b1580156111ad57600080fd5b505afa1580156111c1573d6000803e3d6000fd5b505050506040513d601f19601f820116820180604052508101906111e59190611823565b95509550955095509550955060006001600160a01b0316826001600160a01b0316141561121b5750600098975050505050505050565b888755600187018690556002870180546001600160a01b038781166001600160a01b0319928316811790935560038a0187905560048a0186905560058a018054868316908416811790915560068b018054928616929093168217909255604080518d8152602081018990529081018790526060810191909152889291907f46b85be0abe9e70675d5d46131779feaa9ee52350184e06f8e1d93af1a5af76d9060800160405180910390a450600198975050505050505050565b856113155760405162461bcd60e51b8152602060048201526011602482015270195c9c9bdc97db9d5b1b151bdad95b9259607a1b6044820152606401610922565b6001600160a01b0385166113635760405162461bcd60e51b8152602060048201526015602482015274195c9c9bdc97db9d5b1b1b999d10dbdb9d1c9858dd605a1b6044820152606401610922565b600061136e88610794565b50945050506001600160a01b0383161591506113c490505760405162461bcd60e51b81526020600482015260136024820152726572726f725f616c726561647945786973747360681b6044820152606401610922565b604051806101000160405280898152602001888152602001876001600160a01b03168152602001868152602001858152602001846001600160a01b03168152602001836001600160a01b0316815260200160006001600160a01b0316815250600560008a8152602001908152602001600020600082015181600001556020820151816001015560408201518160020160006101000a8154816001600160a01b0302191690836001600160a01b03160217905550606082015181600301556080820151816004015560a08201518160050160006101000a8154816001600160a01b0302191690836001600160a01b0316021790555060c08201518160060160006101000a8154816001600160a01b0302191690836001600160a01b0316021790555060e08201518160070160006101000a8154816001600160a01b0302191690836001600160a01b0316021790555090505086866001600160a01b0316836001600160a01b03167fe54e4e6ced10d1337ec64fed99fb9aad940e736ebe0948c2e2b4732409ff57118660405161156891906001600160a01b0391909116815260200190565b60405180910390a45050505050505050565b803561158581611abb565b919050565b600061010080838503121561159e57600080fd5b6040519081019067ffffffffffffffff821181831017156115cf57634e487b7160e01b600052604160045260246000fd5b604091825283358152602080850135908201529150820135816115f182611abb565b816040820152606084013560608201526080840135608082015261161760a0850161157a565b60a082015261162860c0850161157a565b60c082015261163960e0850161157a565b60e0820152505092915050565b60006020828403121561165857600080fd5b813561166381611abb565b9392505050565b60006020828403121561167c57600080fd5b5035919050565b6000806040838503121561169657600080fd5b8235915060208301356116a881611abb565b809150509250929050565b600080600080600080600060e0888a0312156116ce57600080fd5b873596506020880135955060408801356116e781611abb565b9450606088013593506080880135925060a088013561170581611abb565b915060c088013561171581611abb565b8091505092959891949750929550565b6000806000806000610180868803121561173e57600080fd5b611748878761158a565b945061010086013561175981611abb565b935061012086013561176a81611abb565b949793965093946101408101359450610160013592915050565b6000808284036101c081121561179957600080fd5b6101a0808212156117a957600080fd5b6117b16119fc565b91506117bd868661158a565b82526101008501356117ce81611abb565b60208301526101208501356117e281611abb565b806040840152506101408501356060830152610160850135608083015261018085013560a083015281935061181881860161157a565b925050509250929050565b60008060008060008060c0878903121561183c57600080fd5b86519550602087015161184e81611abb565b809550506040870151935060608701519250608087015161186e81611abb565b60a088015190925061187f81611abb565b809150509295509295509295565b80518051835260208101516020840152604081015160018060a01b03808216604086015260608301516060860152608083015160808601528060a08401511660a08601528060c08401511660c0860152505060e081015190506118fb60e08401826001600160a01b03169052565b5060208101516001600160a01b039081166101008401526040820151166101208301526060810151610140830152608081015161016083015260a0015161018090910152565b6020808252825182820181905260009190848201906040850190845b818110156119845761197083855161188d565b928401926101a0929092019160010161195d565b50909695505050505050565b6020808252600e908201526d195c9c9bdc97db9bdd119bdd5b9960921b604082015260600190565b6020808252601590820152746572726f725f61737365744f776e6572734f6e6c7960581b604082015260600190565b6101a081016119f6828461188d565b92915050565b60405160c0810167ffffffffffffffff81118282101715611a2d57634e487b7160e01b600052604160045260246000fd5b60405290565b600082611a5057634e487b7160e01b600052601260045260246000fd5b500490565b6000816000190483118215151615611a6f57611a6f611a8f565b500290565b6000600019821415611a8857611a88611a8f565b5060010190565b634e487b7160e01b600052601160045260246000fd5b634e487b7160e01b600052603260045260246000fd5b6001600160a01b0381168114611ad057600080fd5b5056fea2646970667358221220f95d978830c904aa8c61c3b5564053e9dc4d091719e6397b1800c2cbd488e64764736f6c63430008060033",
  "immutableReferences": {},
  "source": "// solhint-disable not-rely-on-time, var-name-mixedcase\r\npragma solidity ^0.8.0;\r\npragma experimental ABIEncoderV2;\r\n\r\nimport \"openzeppelin-solidity/contracts/token/ERC20/ERC20.sol\";\r\nimport \"openzeppelin-solidity/contracts/utils/math/SafeMath.sol\";\r\nimport \"openzeppelin-solidity/contracts/access/Ownable.sol\";\r\n\r\nimport \"./PurchaseListener.sol\";\r\n//import \"./Ownable.sol\";\r\nimport \"./giveNFT/giveNFTv2.sol\";\r\nimport \"./giveNFT/giveNFTv2Factory.sol\";\r\n\r\n\r\ninterface IGIVEMarketplace{\r\n\r\n\tfunction getAsset(bytes32 id) external view returns (uint256 tokenId, address nftContract, uint256 numSales, uint256 royalties, address owner, address creator);\r\n\t\r\n}\r\n\r\n/*\r\n *\r\n */\r\n\r\ncontract GIVEMarketplace is Ownable, IGIVEMarketplace {\r\n\tusing SafeMath for int256;\r\n\r\n\t//events\r\n\tevent AssetImported(address indexed owner, bytes32 id, address indexed nftContract, uint256 indexed tokenId, uint256 numSales, uint256 royalties, address creator);\r\n\tevent AssetCreated(address indexed creator, address indexed nftContract, uint256 indexed tokenId, address owner);\r\n\tevent AssetOwnershipOffered(bytes32 id, address indexed owner, address indexed recipient);\r\n\tevent AssetOwnershipChanged(address indexed newOwner, bytes32 assetId, address indexed owner);\r\n\tevent AssetUpdated(uint256 indexed tokenId, address indexed nftContract, address indexed owner);\r\n\r\n\t//Structures\r\n\tstruct Asset{\r\n\t\tbytes32 id;\r\n\t\tuint256 tokenId;\r\n\t\taddress nftContract;\r\n\t\tuint256 numSales;\r\n\t\tuint256 royalties;\r\n\t\taddress assetOwner;\r\n\t\taddress creator;\r\n\t\taddress recipient;\r\n\t}\r\n\r\n\tstruct Order{\r\n\r\n\t\tAsset asset;\r\n\t\taddress fromAddress;\r\n\t\taddress toAddress; //from and to indicate the direction the asset is 'travelling'\r\n\t\tuint orderType; // 1 for sellOrder or 2 for buyOrder\r\n\t\tuint subPrice; //likely in units of finney (0.001 ETH)\r\n\t\tuint price; //subPrice + 9% royalties\r\n\t\t\r\n\t\t//expirationTime?\r\n\t\t//auctions?\r\n\t}\r\n\r\n\t// Marketplace Lifecycle\r\n\r\n\tERC20 public paymentToken;\r\n\tgiveNFTv2 public nonFungibleToken;\r\n\tIGIVEMarketplace public prev_marketplace;\r\n\tuint256 public txFee;\r\n\r\n\tconstructor(address paymentTokenAddress, address nonFungibleTokenAddress, address prevMarketplaceAddress) Ownable() {\r\n\t\t_initialize(paymentTokenAddress, nonFungibleTokenAddress, prevMarketplaceAddress);\r\n\t}\r\n\r\n\tfunction _initialize(address paymentTokenAddress, address nonFungibleTokenAddress, address prevMarketplaceAddress) internal {\r\n\t\tnonFungibleToken = giveNFTv2(nonFungibleTokenAddress);\r\n\t\tpaymentToken = ERC20(paymentTokenAddress);\r\n\t\tprev_marketplace = IGIVEMarketplace(prevMarketplaceAddress);\r\n\t}\r\n\r\n\t/// Asset management\r\n\r\n\tmapping (bytes32 => Asset) public assets;\r\n\r\n\tfunction getAsset(bytes32 id) public override view returns (uint256 tokenId, address nftContract, uint256 numSales, uint256 royalties, address assetOwner, address creator) {\r\n\t\t(tokenId, nftContract, numSales, royalties, assetOwner, creator) = _getAssetLocal(id);\r\n\t\tif (assetOwner != address(0))\r\n\t\t\treturn (tokenId, nftContract, numSales, royalties, assetOwner, creator);\r\n\t\t(tokenId, nftContract, numSales, royalties, assetOwner, creator) = prev_marketplace.getAsset(id);\r\n\t\treturn (tokenId, nftContract, numSales, royalties, assetOwner, creator);\r\n\t}\r\n\r\n\tfunction _getAssetLocal(bytes32 id) internal view returns (uint256 tokenId, address nftContract, uint256 numSales, uint256 royalties, address assetOwner, address creator) {\r\n\t\tAsset memory a = assets[id];\r\n\t\treturn (\r\n\t\t\ta.tokenId, \r\n\t\t\ta.nftContract, \r\n\t\t\ta.numSales, \r\n\t\t\ta.royalties,\r\n\t\t\ta.assetOwner, \r\n\t\t\ta.creator\r\n\t\t);\r\n\t}\r\n\r\n\tmodifier onlyAssetOwner(bytes32 assetId) {\r\n        (,,,,address _assetOwner,) = getAsset(assetId);\r\n        require(_assetOwner != address(0), \"error_notFound\");\r\n        require(_assetOwner == msg.sender || owner() == msg.sender, \"error_assetOwnersOnly\");\r\n        _;\r\n    }\r\n\r\n\tfunction _importAssetIfNeeded(bytes32 assetId) internal returns(bool imported){\r\n\t\tAsset storage a = assets[assetId];\r\n\t\tif (a.id != 0x0) {return false;}\r\n\t\t(uint256 _tokenId, address _nftContract, uint256 _numSales, uint256 _royalties, address _assetOwner, address _creator) = prev_marketplace.getAsset(assetId);\r\n\t\tif (_assetOwner == address(0)) {return false;}\r\n\t\ta.id = assetId;\r\n\t\ta.tokenId = _tokenId; \r\n\t\ta.nftContract = _nftContract; \r\n\t\ta.numSales = _numSales; \r\n\t\ta.royalties = _royalties;\r\n\t\ta.assetOwner = _assetOwner;\r\n\t\ta.creator = _creator;\r\n\t\temit AssetImported(a.assetOwner, a.id, a.nftContract, a.tokenId, a.numSales, a.royalties, a.creator);\r\n\t\treturn true;\r\n\t}\r\n\r\n\tfunction createAsset(bytes32 assetId, uint256 tokenId, address nftContract, uint256 numSales, uint256 royalties, address assetOwner, address creator) public {\r\n\t\t_createAsset(assetId, tokenId, nftContract, numSales, royalties, assetOwner, creator);\r\n\t}\r\n\r\n\tfunction _createAsset(bytes32 assetId, uint256 tokenId, address nftContract, uint256 numSales, uint256 royalties, address assetOwner, address creator) internal {\r\n\t\trequire(tokenId != 0, \"error_nullTokenId\");\r\n\t\trequire(nftContract != address(0), \"error_nullnftContract\");\r\n\t\t(,,,,address _assetOwner,) = getAsset(assetId);\r\n\t\trequire(_assetOwner == address(0), \"error_alreadyExists\");\r\n\t\tassets[assetId] = Asset({id: assetId, tokenId: tokenId, nftContract: nftContract, numSales:numSales, royalties: royalties, assetOwner: assetOwner, creator: creator, recipient: address(0)});\r\n\t\temit AssetCreated(creator, nftContract, tokenId, assetOwner);\r\n\t}\r\n\r\n\tfunction updateAsset(bytes32 assetId, uint256 tokenId, address nftContract, uint256 numSales, uint256 royalties, address assetOwner, address creator) public onlyAssetOwner(assetId){\r\n\t\t_importAssetIfNeeded(assetId);\r\n\t\tAsset storage a = assets[assetId];\r\n\t\ta.id = assetId;\r\n\t\ta.tokenId = tokenId; \r\n\t\ta.nftContract = nftContract; \r\n\t\ta.numSales = numSales; \r\n\t\ta.royalties =royalties;\r\n\t\ta.assetOwner = assetOwner;\r\n\t\ta.creator = creator;\r\n\t\t//finish filling out this field + implement event\r\n\t\temit AssetUpdated(a.tokenId, a.nftContract, a.assetOwner);\r\n\t}\r\n\r\n\t//two step asset transfer method\r\n\tfunction offerAsset(bytes32 assetId, address recipient) public onlyAssetOwner(assetId){\r\n\t\t_importAssetIfNeeded(assetId);\r\n\t\tassets[assetId].recipient = recipient;\r\n\t\taddress assetOwner = assets[assetId].assetOwner;\r\n\t\t//finish filling out this field + implement event\r\n\t\temit AssetOwnershipOffered(assetId, assetOwner, recipient);\r\n\t}\r\n\r\n\tfunction claimAsset(bytes32 assetId) public {\r\n\t\t_importAssetIfNeeded(assetId);\r\n        Asset storage a = assets[assetId];\r\n        require(msg.sender == a.recipient, \"error_notPermitted\");\r\n        //Implement event\r\n\t\temit AssetOwnershipChanged(msg.sender, assetId, a.assetOwner);\r\n        a.assetOwner = msg.sender;\r\n        a.recipient = address(0);\r\n\t}\r\n\r\n\t//one step asset transfer method\r\n\tfunction transferAsset(bytes32 assetId, address recipient) public onlyAssetOwner(assetId){\r\n\t\t_importAssetIfNeeded(assetId);\r\n\t\tAsset storage a = assets[assetId];\r\n        a.assetOwner = recipient;\r\n        a.recipient = address(0);\r\n\t}\r\n\r\n\t//Whitelist mangement, if necessary?  \r\n\r\n\t// Order management\r\n\r\n\tmapping (uint => Order) sellOrder; //uint will be the tokenId. probably only going to have one sellOrder at a time?\r\n\tmapping (uint => Order[]) buyOrders; //array of Orders to represent buy orders on an asset\r\n\r\n\tfunction getSellOrder(uint tokenId) public returns (Order memory _sellOrder){\r\n\t\treturn sellOrder[tokenId]; //returns a sell order of a specific asset\r\n\t}\r\n\r\n\tfunction getBuyOrders(uint tokenId) public returns (Order[] memory _buyOrders){\r\n\t\treturn buyOrders[tokenId]; //returns array of buy orders on a specific asset\r\n\t}\r\n\r\n\tfunction getBuyOrder(uint tokenId, address toAddress) public { //retrieves a buy order that you made\r\n\r\n\r\n\t}\r\n\r\n\tfunction getOrderLocal() public { //what is a local order?\r\n\t\r\n\t}\r\n\r\n\tfunction _importOrderIfNeeded() internal {\r\n\r\n\t}\r\n\r\n\tfunction createOrder(Asset memory asset, address fromAddress, address toAddress, uint orderType, uint subPrice) public {\r\n\t\t\r\n\t\tif (orderType == 1){ //if sellOrder\r\n\t\t\tsellOrder[asset.tokenId] = Order(asset, fromAddress, toAddress, orderType, subPrice, subPrice * 109 / 100);\r\n\t\t}\r\n\t\telse if (orderType == 2){ //if buyOrder\r\n\t\t\tbuyOrders[asset.tokenId].push(Order(asset, fromAddress, toAddress, orderType, subPrice, subPrice * 109 / 100));\r\n\t\t}\r\n\t\t\r\n\t}\r\n\r\n\tfunction cancelOrder(Order memory order, address toAddress) public {\r\n\r\n\t\tif (order.orderType == 1){\r\n\t\t\tdelete sellOrder[order.asset.tokenId];\r\n\t\t}\r\n\t\telse if (order.orderType == 2){\r\n\t\t\tfor (uint i=0; i < buyOrders[order.asset.tokenId].length; i++){\r\n\t\t\t\tif (buyOrders[order.asset.tokenId][i].toAddress == toAddress){ \r\n\t\t\t\t//buyOrders[order.asset.tokenId][i].toAddress retrieves buyOrder array,\r\n\t\t\t\t//then iterates through the array with i, and compares the passed toAddress(presumably the user's address)\r\n\t\t\t\t//with the address that created the order.\r\n\t\t\t\t\tdelete buyOrders[order.asset.tokenId][i].toAddress;\r\n\r\n\t\t\t\t}\r\n\r\n\t\t\t}\r\n\r\n\t\t}\r\n\t\t//TODO delete leaves empty spot; move last element into empty spot.\r\n\t}\r\n\r\n\tfunction fulfillOrder() public {\r\n\t\r\n\t}\r\n\t\r\n}",
  "sourcePath": "E:/ECSSEN/Code Repository/marketplace-contracts/contracts/GIVEMarketplace.sol",
  "compiler": {
    "name": "solc",
    "version": "0.8.6+commit.11564f7e.Emscripten.clang"
  },
  "schemaVersion": "3.4.1",
  "updatedAt": "2021-07-28T23:01:10.803Z",
  "networkType": "ethereum",
  "devdoc": {
    "kind": "dev",
    "methods": {
      "owner()": {
        "details": "Returns the address of the current owner."
      },
      "renounceOwnership()": {
        "details": "Leaves the contract without owner. It will not be possible to call `onlyOwner` functions anymore. Can only be called by the current owner. NOTE: Renouncing ownership will leave the contract without an owner, thereby removing any functionality that is only available to the owner."
      },
      "transferOwnership(address)": {
        "details": "Transfers ownership of the contract to a new account (`newOwner`). Can only be called by the current owner."
      }
    },
    "version": 1
  },
  "userdoc": {
    "kind": "user",
    "methods": {
      "assets(bytes32)": {
        "notice": "Asset management"
      }
    },
    "version": 1
  }
}